:020000040800F2
:1000000000000120793F00088D3F00088D3F000867
:100010008D3F00088D3F00088D3F00088D3F000890
:100020008D3F00088D3F00088D3F00088D3F000880
:100030008D3F00088D3F00088D3F0008B14D00083E
:100040008D3F00088D3F00088D3F00088D3F000860
:100050008D3F00088D3F00088D3F00088D3F000850
:100060008D3F00088D3F00088D3F00088D3F000840
:100070008D3F00088D3F00088D3F00088D3F000830
:100080008D3F00088D3F00088D3F00088D3F000820
:100090008D3F00088D3F00088D3F00088D3F000810
:1000A0008D3F00088D3F00088D3F00088D3F000800
:1000B0008D3F00088D3F00088D3F00088D3F0008F0
:1000C0008D3F00088D3F00088D3F00088D3F0008E0
:1000D0008D3F00088D3F00088D3F00088D3F0008D0
:1000E0008D3F00088D3F00088D3F00088D3F0008C0
:1000F0008D3F00088D3F00088D3F00088D3F0008B0
:100100008D3F00088D3F00088D3F00088D3F00089F
:100110008D3F00088D3F00088D3F00088D3F00088F
:100120008D3F00088D3F00088D3F00088D3F00087F
:100130008D3F00088D3F00088D3F00088D3F00086F
:100140008D3F00088D3F00088D3F00089161000839
:10015000084909488B68094A4FF0000C1A4480F896
:1001600008C003F18013064803F5305382608B60AA
:10017000012070471C00002028000020802C808077
:100180001000002000207047104B1888C0B10138C3
:1001900010B416D00E4A0F4B146893F800C000221A
:1001A000234619460132634482420B60F9D102FBB7
:1001B0000C4C094B0022CCF800201C6010BC70478E
:1001C0007047034B1C68A446F3E700BF44000020BF
:1001D000400000203C0000203800002010B482685D
:1001E000D0E90034EFF3108172B6DBB2012B07D0F7
:1001F000022B0BD0D2B2227081F3108810BC704752
:1002000092B2228081F3108810BC7047226081F383
:10021000108810BC704700BF704700BF81698268BA
:100220004B6910B4C46963404B6190F8303083F07F
:100230000103D9074CBFC168016980F830305B0702
:100240000A4403D4826010BC012070474369D11A6C
:100250000029F7DB034A42601A46826010BC012085
:10026000704700BFCD030008EFF3108C72B614493D
:100270000B68834202D110E083420BD01A461B6800
:10028000002BF9D14B68834204BF0E4B4B608CF3BB
:100290001088704703681360F4E70B4B026800B5E1
:1002A000D0F808E0C3F808E01A600B604B6883429E
:1002B00004BF044B4B608CF310885DF804FB00BF57
:1002C000280000201C0000200400002008B5014682
:1002D00072B6014806F0F2FD5000002008B5042077
:1002E000FFF7F4FF10B58168EFF3108E72B6174C6C
:1002F00023689A688A1A002A0BDB9C461B689A6856
:100300008A1A002AF9DA0360CCF800008EF310880C
:1003100010BD0F4A52688A1A002A11DB0D4A934217
:1003200008BF1B68036091604FF0E0230A4910602A
:1003300022604FF0806000225A619A614860E5E7D0
:10034000627A002AEAD10320FFF7C0FF28000020CC
:10035000001000E00400002000ED00E070B50E4D3C
:10036000296891B90D4E047833680D4803EBC40C2D
:1003700084454FEAC4020BD898183060184606F03E
:1003800045FD084A2860147070BD0A20FFF79EFFE3
:100390001120FFF79BFF00BFD00000204800002085
:1003A00000FE0020D400002008B50820FFF78EFFD3
:1003B00008B5054A537A23B1022B1CBF00235372A0
:1003C00008BD0220FFF782FF28000020826A38B5AE
:1003D000002A00F09680936811688162002B84697E
:1003E000C16914BF4FF0010C4FF0000C27D1090474
:1003F000A16147490C6814600A6090F83020B3FA94
:1004000083F302F0100412F010024FEA53130CBFF2
:10041000012100218B4231D0036A002B2ED081684C
:100420000B44816A4CF0040C002944D142EA0C02CE
:100430001946416180F830208360012038BDA161F8
:10044000334C416A2568156099422260D5D9046A07
:10045000ECB9856A002D3CD190F830408268456146
:1004600004F0100444F003041A4480F83040294C8E
:10047000C91AC0E90142C0E90331DEE7836A0BBB58
:1004800042EA0C0280F830204361184638BD826889
:10049000856A144455BB4461254690F8304004F009
:1004A000100444F007041A4480F83040541B002C18
:1004B000DDDB8560C1E749685B1A002B24DA132075
:1004C000FFF704FF5B684CF0040C42EA0C0219468B
:1004D000AFE790F830406D68826804F0100444F093
:1004E000070480F8304045611A44DFE76D68641BFB
:1004F000002CE4DB90F8304004F0100444F00704D2
:10050000EFE71520FFF7E2FE4CEA04020B4690E706
:10051000380000201D0200080FB42DE9F04FDFF86D
:10052000F89199F8003085B0DBB223B105B0BDE891
:10053000F04F04B07047794F0E9B3A785C780123F6
:1005400089F8003013190FA8C02B039000F2AD807A
:10055000DFF8CC81052C08EB020B72D90E9B0E99AB
:100560009E781B784D688BF80230033C5C440BF19D
:10057000030A002E00F0C0805445C0F0C9802E440C
:10058000CDE9002B5246B24631E050F8043B03F16E
:1005900020017F2922D903F58051B1F5804F18D36E
:1005A00003F50021B1F5001F0ED303F18061B1F115
:1005B000805F04D3190F61F07F0102F8011B590D10
:1005C00061F07F0102F8011B990B61F07F0102F8D5
:1005D000011BD90961F07F0102F8011B03F07F03C1
:1005E00002F8013B55451FD0A24200F2918015F858
:1005F000013B052B61D0C8D9063B012B00F2888056
:100600000646134656F8081BA21A8A4228BF0A4615
:1006100003F8012B41681846934606F0E1FA554568
:1006200000EB0B023046DFD1DDF804B09246AAEBB6
:100630000B06009AF41CE4B2751E711CB01C131951
:1006400005E0E61E0BEB060AA11E601E251F08F83A
:100650000240344A12788BF80120002E49D001352F
:100660005D445C464FF6FF7214F8016B564086EA13
:100670000616F6B2120A4FEAC60C42EA06228CEAC5
:1006800016167240AC4216B2EED1120AF6B28AF8D1
:1006900000203B707E22244B0BF801600BF80020F9
:1006A00000221A72214B01221A70002389F80030AF
:1006B00005B0BDE8F04F04B0704750F8046B3378D4
:1006C000511C6BB18C4202D811E08C420BD001F866
:1006D000013B16F8013F002BF7D18B1A013BDBB22F
:1006E00013700A467EE7A31A013BDBB2F8E700234A
:1006F000F6E7FF263246CAE70A4B06211B7808F8C0
:10070000021002258BF80130052053180421A6E7BA
:100710000620FFF7DBFD00BF4C0000207C0200201C
:10072000BC010020000000202800002080020020E2
:100730002DE98048A14BDFF888925C68DFF884B22D
:100740008DB0A14991F90830002B00F05D829B4BE0
:100750005A6872B691F90830002B40F07E8762B675
:10076000964B5B689B1A23440493984B96491B78DD
:100770000122DBB20A72E3B1DFF85482DFF854A23F
:10078000924A98F800008D4D00231370DAF800307B
:10079000FF240134E1B203EBC10107E00A4652F83D
:1007A000086B4E4500F0818311460134E4B2844267
:1007B000F4D3894B1B78DBB2E3B1DFF81482DFF8A6
:1007C00014A2854A98F80000DAF80060834C0023F0
:1007D0001370FF250135EAB206EBC20207E01346AB
:1007E00053F8081B594500F080831A460135EDB2D5
:1007F0008542F4D37A4B1B78DBB2EBB1DFF8D081C2
:10080000DFF8D0A1764A98F80010DAF80000754DAC
:10081000754E00231370FF240134E2B200EBC202D4
:1008200007E0134653F8087BAF4200F077831A467F
:100830000134E4B28C42F4D36C4B1B78DBB2EBB1E5
:10084000DFF88C81DFF88CA1684A98F80010DAF89C
:100850000000674D674E00231370FF240134E2B29D
:1008600000EBC20207E0134653F8087BAF4200F0EA
:100870008F831A460134E4B2A142F4D85E4B1B7850
:10088000DBB2EBB1DFF84881DFF848A15A4A98F8AB
:100890000010DAF80000594D594E00231370FF2460
:1008A0000134E2B200EBC20207E0134653F8087BC2
:1008B000AF4200F04F831A460134E4B2A142F4D8AB
:1008C000504B1B78DBB2F3B1DFF80481DFF804A1F1
:1008D0004C4A98F80010DAF800004B4D0023FF2432
:1008E00013700294029C0134E2B200EBC20207E0F2
:1008F000134653F8086BAE4200F064831A46013485
:10090000E4B2A142F4D8414B1B78DBB2E3B1DFF88B
:10091000C080DFF8C0A03D4A98F80050DAF80070B7
:100920003B4E00231370FF240134E2B207EBC202F6
:1009300007E0134653F8081BB14200F084811A46C1
:100940000134E4B2AC42F4D3324B1B78DBB2F3B1E6
:10095000DFF87C80DFF87CA02E4A98F80010DAF8E7
:1009600000002D4FCDE902A800231370FF240134AD
:10097000E2B200EBC20207E0134653F8085BBD4247
:1009800000F04B821A460134E4B28C42F4D3234B7C
:100990001B78DBB2002B50D0204ADFF83480DFF820
:1009A00034A01F4D00231370FF2498F80000DAF8DC
:1009B00000300134E1B203EBC1013BE0001000E084
:1009C000A52B0008E52C000828000020AC00002022
:1009D000D4000020D0000020B0000020287C0008B7
:1009E000B4000020ED3F0008F07B0008B8000020B4
:1009F000315F0008E87B0008BC000020AD5F000804
:100A0000D87B0008C0000020E9430008C400002093
:100A1000A5440008C800002055450008CC0000206F
:100A2000194600080A4652F8086BAE4200F01781DA
:100A300011460134E4B28442F4D3A54B1B78DBB2F7
:100A4000FBB1A34ADFF88CA2DFF88C82A34DCDF86E
:100A5000088000231370FF24D046029B1878D8F832
:100A600000300134E1B203EBC10107E00A4652F85D
:100A7000086BAE4200F06C8111460134E4B284424E
:100A8000F4D3974A974B4AF6AA2111605A6872B676
:100A9000954B1B689B1A002BC0F2D78362B6934B11
:100AA0001B78DBB2002B00F06F83914B8F491A78D3
:100AB00000230B70002A00F0CB838E4B8E4F1978E9
:100AC0008E4B8F4D186805F0C3FD2A78D2B2002AEC
:100AD00034D08C4E347804F14001002280292A70F1
:100AE00000F22885DFF82082884A0821C2F88810A1
:100AF00008EB040ABFF34F8FBFF36F8F022005F09E
:100B00001FFD824A0821002800F09B8650464021A4
:100B100005F0E0FC7E4A126C002AC0F2B0857C49E8
:100B20007C4B0B6542F004420A64784A08219160CC
:100B300000286BDC002C6FD1002434703A78D2B2DC
:100B40002AB3754D2C7800223A7004B36F4E4FF0E3
:100B50000808402C2246C6F8888028BF4022BFF3F0
:100B60004F8FBFF36F8F6D49096A0B0440F1DF852A
:100B70000029C0F28D866A49012005F06DFC02460D
:100B8000C6F80880002802DDA41A51D12C70554BFC
:100B9000644D654E5C68049B29683268E31A013134
:100BA0001A44B3F5803F2960326080F0C3825F4F02
:100BB00003FB03F3D7F800C0FF330CEB13236345AB
:100BC00038BF4FF0FF33DFF868815A48D8F800A0EB
:100BD0003B602044A0EB0A000028FFF6B2AD564867
:100BE000FFF79AFCA24503D9544A136801331360F6
:100BF0005349C8F8004000233B6033602B6091F9F3
:100C00000830002B7FF4A3AD0494AEE54C4B0022DA
:100C100004441A7201222A704A4B93F800A01AF079
:100C2000010F40F0AB84042C00F29084E4B284E71E
:100C30003B488118224606F06DF8414B00221A729B
:100C400001223A70A2E7506800283FF47DAE037D90
:100C5000DB077FF569AE214604F078F964E64E685B
:100C6000002E3FF4EAAE327ED2077FF5A2AEF38AC1
:100C70002F2B40F2BB820AAF74228DF828203269F4
:100C80003B4611791068302706F11F02CDE9012299
:100C90000097012205F0BEFEF28A0299B777303A3A
:100CA000F2823B46728B284800912146FFF734FCC4
:100CB000738BF28A013373832F2A4FF00003B377CB
:100CC00040F2B3821E4A1372204A012313706CE66D
:100CD000D8000020D0000020D4000020CD4600081D
:100CE00000300040001000E0DC0000203001002057
:100CF0002C01002024010020800200202801002077
:100D0000B8010020B40100203401002000E100E01F
:100D1000000B0050400008007C0200200009005039
:100D2000BC01002094020020900200208C020020D0
:100D300088020020004FF7E6707C00088402002043
:100D40002800002031010020B87B0008CC000020E2
:100D50004E68002E3FF495AE327DD7077FF581AE09
:100D60004FF000038DF82E3000230A93ADF82C309D
:100D7000AF23ADF82430A8238DF8283096F81AA0B8
:100D800030690AAB0722012102F0FCFC0AF11B07C3
:100D900009AB0222B2443069012102F0F3FC9DF854
:100DA00029309DF825208AF81B3037449DF82A30D9
:100DB0007B709DF82B30BB709DF82C30FB709DF83C
:100DC0002D303B719DF82E307B71B37E0633DBB244
:100DD0002E2BB37602F03F0A02F040070ED817B16F
:100DE000338B01333383BAF1000F40F0F483A44B0B
:100DF00083F808A0A34A012313702EE606F11B0115
:100E0000F28AA14800912146FFF786FB4FF00003CC
:100E1000B376F38A0133F382E1E75568002D3FF49E
:100E2000B6AD2B7D5E077FF5A2AD72B64FF0000820
:100E3000EE7DAA6885F8148085F8178062B6EB68A5
:100E4000D31A0593F6B14FF0FF0A01E0013E19D025
:100E50002B7FEA180333DBB2312BA2F81DA082F8F6
:100E60001F802B77F2D905F11D012A8B864800914E
:100E70002146FFF751FB2B8B85F81C800133013E87
:100E80002B83E5D16E7D002E00F08F81012E00F0C6
:100E9000C083022E00F0EE832B7F312B00F277818E
:100EA000039B1978029B186861E5496800293FF4A3
:100EB00080AC91F8202056077FF56BAC686872B65D
:100EC00091F8202091F8213022F0040681F820606A
:100ED00062B6009002F001026C482146FFF71CFB4D
:100EE00098F80000DAF8003053E45268002A3FF422
:100EF00081AC92F82A1092F82B3099427FF46AACB8
:100F000072B692F82A1092F82B308B4200F0FB80D8
:100F100062B698F80000DAF800605BE45768002FCA
:100F20003FF48AAC3B7FFF2B7FF476AC72B6BB7C80
:100F3000002B00F0F8807A7F3A7762B6FA7E13379A
:100F4000214630460097FFF7E7FA98F80010DAF8E4
:100F5000000061E45768002F3FF4B2AC97F82030EE
:100F6000DB077FF59DAC72B697F82030BA6823F0A6
:100F7000010387F82030D7E9063162B60091304688
:100F80002146FFF7C9FA98F80010DAF8000087E464
:100F90005368002B3FF472AC1A7F12077FF55EACEA
:100FA00072B61A7F22F008021A7762B69A7F21463B
:100FB00030462833D208FFF7AFFA98F80010DAF875
:100FC00000004BE456680294002E3FF49CACF37F83
:100FD000DA077FF587AC72B6F37F23F00103F3776E
:100FE000B368039362B6B37F032B19D8DFE803F02D
:100FF00073501D020023ADF82830B0690AAB0222FD
:10100000012102F0BFFB029B0093BDF82830039939
:101010005ABA1B0A304603F0060392B203F06AFF85
:1010200098F80010DAF800005CE401210A910AAF98
:101030003B46B069032202F0A5FB07223B460A9F0C
:10104000ADF82820B0690121022202F09BFB029B2F
:1010500000933FBA9DF8293003993C0A04F0010C33
:10106000C7F30F2723F0030330463A4643EA0C0345
:1010700003F040FF98F80010DAF8000032E400BFF7
:1010800028000020D8000020B87B0008307C000831
:101090000C230A930AAF3B46B0690422012102F0F7
:1010A00071FB0F223B460A9FADF82820B06902224F
:1010B000012102F067FB3FBA029B0399009330467F
:1010C0009DF8293027F07F4203F014FF98F80010B4
:1010D000DAF8000006E400230A93B0690AAB0422A0
:1010E000012102F04FFB0A9A029B039900933046BC
:1010F000C2F3026312BA03F0FDFE98F80010DAF8AA
:101100000000FFF7EFBB013382F82A30138B5269DE
:1011100062B620462946FFF7FFF998F80000DAF892
:101120000060FFF757BB62B698F80010DAF80000CD
:10113000FFF772BBB3F5801FBB4F80F05C8203F1F9
:10114000FF00D7F800C0000A03FB00C337E5212CDD
:1011500004D1134302D1072900F08A83B349082040
:10116000C1F88800BFF34F8FBFF36F8FB04BB14C06
:1011700000221A72236843F400132360AE4C01234B
:1011800023708860AD4B1A70AD4FAE4D9DE405F1F4
:101190001D012A8BAC4800912146FFF7BDF92B8B2E
:1011A00001332B8300232B777AE63223ADF82830E6
:1011B000DFF898822869D8F804A00AAB022201213E
:1011C00002F0E0FAD8F8043041F26802A3EB0A0317
:1011D000934240F214822B7F40F2FF21EA1803333E
:1011E000DBB2A2F81D10D6772B7756E672238DF866
:1011F000243033690AAF19791868019702230093E4
:10120000012209AB05F006FC9DF828209DF8293045
:10121000B08A120202F4F85243EA0201884238BF4F
:10122000B1822F29F1823FF727AD337E23F00103EE
:10123000337672B6854B5A68F3681344B360304610
:10124000FFF750F862B6FFF7B0BB814B1A6025E498
:10125000764B0822C3F88820BFF34F8FBFF36F8F00
:101260007C4D002005F06CF9002800F05681C0F399
:101270004344062C00F047810021084605F02AF976
:10128000042CEED16B4A1368002BC0F23C82724BE7
:101290001B68002BC0F233826F4A7049116143F022
:1012A000044313606C4A08239360604A9360694B5F
:1012B00058781C785A88194605389B88C9881D2893
:1012C0003FF64CAF01A555F820F000BFD31400083D
:1012D000791400085D1100085D110008A7130008CB
:1012E0005D1100085D1100085D1100085D11000826
:1012F0005D1100085D1100085D1100085D11000816
:101300005D1100085D1100085D1100085D11000805
:101310005D1100085D1100085D1100085D110008F5
:101320005D1100085D1100085D1100085D110008E5
:101330005D1100085D1100084F11000883130008BB
:1013400045130008212C7FF409AF19437FF406AF41
:10135000434BD4B2084602221C7005F079F9414B88
:101360001B68B3F5966F7FF40FAFE0073FF50CAF46
:1013700072B62BA1D1E900013B4BC3E9000103F098
:10138000A9FFA12C7FF4EAAE13437FF4E7AE062950
:101390007FF6E4AE33482A4F2A4D0222072105F09A
:1013A00057F9FFF792BB002C7FF4D8AE012A7FF4E7
:1013B000D5AE0B437FF4D2AE1C4B0822C3F8882075
:1013C000BFF34F8FBFF36F8F1A4B2349234A274D2B
:1013D000274C28484FF008161E671D660A650C64E6
:1013E0001A6318621A6A002AFCDB4FF0A0436022DD
:1013F0001A61196911F02001FBD10C4B08229A6087
:101400000B4B19720E4F197201223A700D4D08469E
:101410002A70022205F01CF9FFF757BBAFF30080DA
:10142000544F4F42204253558C02002000E100E00F
:101430002800002000090050300100202C0100206D
:1014400080020020B8010020B87B0008001000E0F6
:10145000DC000020E0000020000B005040000800ED
:10146000230100201C01002000FC00200880CC1873
:101470004080089440804858802C40F06A81B94CE4
:10148000002004F1500502E01034A5420CD026687B
:10149000B242F9D16668B342F6D1E06806901034E2
:1014A00054F8080CA542F2D140F20334A24200F0F5
:1014B000D681002800F04D81069B994280F0CC81B6
:1014C000069102220699A84FA84D05F0C1F8FFF732
:1014D000FCBA002C7FF442AE0B437FF43FAEA4482D
:1014E000036823F4FE6343EA0213036021462046A7
:1014F00005F05CF89F4B1C729F4A9B4F9B4D01234C
:101500001370FFF7E2BA0821284604F0E3FF002039
:1015100005F016F800287FF4AAAE4FF0A0429369B8
:1015200043F010039361954B08229A608E4F8F4DC4
:10153000FFF7CBBA8F4B1A72914BDFF8488293F8C2
:1015400000A001221AF0010F2A7017D198F800109C
:101550004A1F3B2A00F2E58098F801E02EF00F02C6
:10156000102A07D1A1423FF661AB874A505C7E2822
:1015700000F012814AF0010A83F800A0814802932A
:1015800022467E2105F0DCFA029B002800F0A480B0
:10159000A0EB08011AF0020F01F101010AF0FE02AE
:1015A00040F0A78042F002021A70641A7748029154
:1015B000FEF7B2FF0299002C3FF4BEAA2246414436
:1015C000704805F0A7FB6B4B00221A720122E4B2AF
:1015D0002A70FFF7B2BA337D23F00103337572B678
:1015E0006B4B5A68F3681344B3603046FEF77AFEDB
:1015F00062B6FFF732BA4FF0FF33FFF7E4BA9DF956
:1016000028209DF82830002A59DA2B7F40F2FF313C
:10161000E4E54FF67F63ADF82830DFF87481286980
:10162000D8F804A00AAB02220021079302F0AAF81E
:10163000D8F80480079BA8EB0A0A41F26802924599
:1016400022D92B7F40F2FF21EA180333A2F81D10A4
:10165000DBB20021D1772B771FE44649FF230B72C1
:1016600062B630BF72B6434B93F90830002BF7D106
:10167000FFF775B80599284603F03CFD0CE491038B
:101680007FF553AAFFF74BBAC022ADF828203146A8
:101690000222286902F076F89DF828309DF829107A
:1016A00083EA010282EA121282EA920282EA52027A
:1016B00012F001023FD02B7F40F2FF31C4E79DF8CA
:1016C000290005995B0243EA40035246284603F08D
:1016D000E7FC2B7FFFF7E1BB1AF0020F7FF42CAA87
:1016E0004AF0020A294883F800A0FEF715FFFFF729
:1016F00023BA641A1A70002C3FF41EAA5EE79D03F9
:101700007FF5D0ADC8E543F0904313601368002B1C
:10171000FCDB4FF0A0422023136113699E06FCD42A
:10172000B5E57E297FF426AF013C012146E7C6F8E6
:101730000880FFF729BA580678D52B7FE9180333BC
:1017400040F2FF50DBB2A1F81D00CA772B77FFF7FC
:10175000A4BB04F05DFF0F4A034F044D0023137038
:10176000FFF7B3B9607B000880020020B8010020B9
:1017700000080050280000203001002000E100E0B7
:10178000310100203401002033010020B07B00082B
:10179000001000E02C01002002F1FF3CC81E0132C5
:1017A00002921CF8012018F800C0059142EA0C22B0
:1017B00040440FFA82FC03904FF6FF720793029B9E
:1017C00013F8010B0293504080EA0010C0B2120AD5
:1017D00042EA00221346C20082EA10125A40DDE9B2
:1017E0000231994210B2EAD184450599079B7FF4F2
:1017F000C1AE2D4802782AF0020A724583F800A093
:101800007FF4D3AE0EF1010202F00F0242F010029B
:1018100002700846641A029105F066F82348FEF744
:101820007BFE0299002C3FF487A9C7E6890041EAB4
:10183000832342460599284603F032FC2B7FFFF7AD
:101840002CBB4FF0A04CDCF8180040F01000CCF896
:1018500018009160FFF76EB923D90A2232E640F2F0
:10186000094293427FF425AE11480378069323E69C
:101870001048012204F0ECFE0E4B1B68B3F5966F86
:101880007FF482AC0C4B1B78DC077FF571AD7BE4F9
:101890000A4AD36943F00203D361C6F80880FFF710
:1018A00076B902220EE600BF00000020B07B0008DF
:1018B000E80000201C010020230100200008005047
:1018C000A648A74DA74920F003002DE9884800222B
:1018D000286045F2555440F6FF700C60A24B4A60F8
:1018E00088604CF6CC400860D3F8FC009F4940F07B
:1018F0008070C3F8FC00086840F0010008604A608E
:10190000EFF3108072B64FF0E021202483F82340DB
:1019100007240C614FF080644A618A615C6080F347
:101920001088934A536B43F080034FF0A0445363F5
:101930002369002BFCDA8F4D8F4BE3602B6843F05B
:1019400003032B60A36B43F40013A3630022A221C3
:101950000B2003F0D5FC0022A2210C2003F0D0FCC8
:101960008649874A874B50206062A1621031C4F8D3
:101970000C111031C4F804118349116083491961B5
:10198000834919600122834B83492A61A161102197
:10199000A26083F8431308229A60A36B7F4943F443
:1019A0008033A363002240F232336A600B8053100D
:1019B00003F10053A3F51043D00793F8103A4CBF3E
:1019C00003F00F031B09092B02F1010294BF30330E
:1019D0003733182A21F8023FE9D17148FEF79CFD00
:1019E00072B6704805F064FA10B962B6FEF7A0FE50
:1019F00072B66D4B5D495A7AD1F804A0002A00F006
:101A00002E826A4B6A499868674A88606948116003
:101A100053600B6018604FF0E021534B0224547266
:101A200000274FF080624F618F615A60624B634EB6
:101A30001F70FEF7A9FB624A624B15781C684FF0D5
:101A4000FF0C4FF0110E0CF10101C9B204EBC10102
:101A5000634605E00A4652F8080BB04215D011461D
:101A60000133DBB2AB42F5D33A468AB192F830305B
:101A7000D2E9060113F0100315BF73460904816112
:101A8000816182F830309762DDE74A689C46ECE776
:101A90004D4E4FF0FF08174608F10101C9B204EBA3
:101AA000C101434605E00A4652F8080BB0420CD08B
:101AB00011460133DBB29D42F5D8384640B10021D2
:101AC00041633C3000F0B6FEE6E748689846F5E72B
:101AD000DFF8F8804FF0FF09064609F10101C9B2AD
:101AE00004EBC1014B4605E00A4652F8080B40459D
:101AF0001CD011460133DBB29D42F5D83746C7B141
:101B00003846FEF7B1FB07F10C00FEF7ADFBFB69B1
:101B100033B100211A461B68C2E90011002BF9D12C
:101B20000023FB6187F822303B84D6E74F68994653
:101B3000E5E7DFF88C90264E4FF0FF08DFF884B021
:101B4000BC466FF0100EDBF8005099F8004008F129
:101B50000101C9B205EBC101434641E09B020020EF
:101B6000480000200030004000ED00E0001000E0E0
:101B7000003802400008005040180040500010009B
:101B800000090050000B005002000008400008202F
:101B90000200008800E100E010000400E8000020DE
:101BA000907C000850000020280000201C0000202D
:101BB00004000020100000204C0000209D200008A0
:101BC000D4000020D00000200D250008A52B00081F
:101BD000E52C00080A4652F8080BB04226D0114600
:101BE0000133DBB2A342F5D3624612B3D2E9084512
:101BF000EFF3108372B62168C90605D5616B8D427B
:101C000004BFC4F800E0E16C83F3108892F82B3035
:101C1000002B98D00133D16882F82A3053690B44E5
:101C2000536193601046FEF75DFB87E74A6898466C
:101C3000DBE78C4E4FF0FF0C96460CF10101C9B268
:101C400005EBC101634605E00A4652F8080BB042B5
:101C500010D011460133DBB29C42F5D8774667B10C
:101C60003B7CDA07E9D5D7E90212180748BF12040E
:101C70008A61E2E74F689C46F1E77B4E4FF0FF0830
:101C800008F10101C9B205EBC101424605E00B466E
:101C900053F8080BB0420DD019460132D2B294422B
:101CA000F5D83B464BB11A7918680021053301F08D
:101CB00069FDE5E74B689046F4E76C4EDFF8B0E16C
:101CC0004FF0FF0C1F460CF10101C9B205EBC10139
:101CD000634605E00A4652F8080BB0420DD01146A3
:101CE0000133DBB29C42F5D83A464AB1D368918AB7
:101CF0001960C2F804E09761E5E74A689C46F4E79A
:101D00005C4E4FF0FF08174608F10101C9B205EB20
:101D1000C101434605E00A4652F8080BB0421AD00A
:101D200011460133DBB29C42F5D8B946B9F1000F38
:101D300019D099F81C309B0611D5D9E9030101226D
:101D400003F03EFB99F81C3003F0300343F001032D
:101D500089F81C30D8E7D1F804909846E6E7D9E92D
:101D600003329A61EEE7444EFF27791CC9B205EBB6
:101D7000C1013B4605E00A4652F8080BB0420FD0BD
:101D800011460133DBB29C42F5D84A465AB1136979
:101D9000D16818049369526988611B049361E4E770
:101DA0004A681F46F2E73549FF239146581CC0B2E6
:101DB00005EBC00005E0024652F8086B8E4227D0C2
:101DC00010460133DBB29C42F5D8EFF30383C3F333
:101DD00008034BB14FF080736FF0060208B402A104
:101DE00002B41FB5104700BF254B002119722548CA
:101DF00019720122027024481972027023495A7222
:101E00000A7062B622489A7A5146FEF785FBECE5E5
:101E10004268002AD9D01069D2F80CB09769166AC6
:101E20004FEA004E906A4FEA004C106B4FEA0048B0
:101E3000906BCBF818E0D2F814E03F04CEF818709D
:101E4000D7693604BE61566AC6F818C0D66AC6F8A5
:101E50001880566B0004B06182F80890A6E798726B
:101E6000CFE500BFF12300081D3000082540000821
:101E7000913F0008315F0008155D0008A95D00086A
:101E80002800002080020020B8010020300100203E
:101E9000807C000800B50A4B0A4A5B7A11880A4A1E
:101EA0000A48126883B0003B009118BF0123003933
:101EB00018BF0121FEF730FB03B05DF804FB00BF43
:101EC000280000204400002034000020587C000836
:101ED000024B03485968FEF71FBB00BF001000E02B
:101EE000607C0008064A0749074B526809681B686E
:101EF0000648914294BF1946591CFEF70DBB00BF1E
:101F0000001000E08802002084020020687C0008A5
:101F1000D0E90012B1F53B6F0DD8D2B2501840F69F
:101F2000B133984202D9C1F1B102D2B2054B064891
:101F30000B44FEF7F1BA034B034800220B44FEF7B3
:101F4000EBBA00BFAC6F0008787C0008D0E9003124
:101F5000EFF3108272B6DBB2012B08D0022B0DD04A
:101F60000978C9B282F310880748FEF7D5BA098804
:101F700089B282F310880448FEF7CEBA096882F36A
:101F800010880148FEF7C8BA487C0008034602489A
:101F90005A681978FEF7C0BA507C000838B50A4D67
:101FA0000A4B2C68211899420BD8C31C23F0030359
:101FB00002462344002120462B6004F027FF2046E0
:101FC00038BD1120FEF782F94800002000FE0020F5
:101FD00010B50D4B1C788442034612D910460B4AAB
:101FE0000FFA83FC126802EBC30452F83C3043B989
:101FF000074B1B882BB942F83C10FFF7CFFF6060FE
:1020000010BD0B20FEF762F9D4000020D0000020A4
:102010004400002008B50F20FEF758F908B50E203F
:10202000FEF754F9F8B5174F3B8843BB164B174DD5
:102030001C78032C9CBF04241C70154B06461868A2
:102040000119A94218D8002303E00A19AA4211D89D
:1020500011460133B3F5806FF7D11C46081AFFF71C
:102060009DFF0C4B3C801860FEF78EF80A4B3268DF
:102070001A60F8BD9CB2F1E71020FEF727F90D2099
:10208000FEF724F9440000203C00002000FE002060
:1020900048000020400000203400002030B5D0E986
:1020A000011283B00446003A6D4618BF012228464B
:1020B00003F0DCFD144920783422FFF789FF034642
:1020C00095E8030003F1180282E803000F49E26873
:1020D0000D880020111AA26818BF0121121A18BF1A
:1020E000012242EA011283F8302022691A629862C2
:1020F000D8623DB9064B1A780B2A9CBF0C221A7085
:1021000003B030BDFFF78AFF9D2000084400002087
:102110003C00002008B50C20FEF7D8F810B50D4B98
:1021200002781B78934210D90B4B0C491B6853F86B
:1021300032408C4203EBC20307D15B6872B69A6AE5
:102140002AB942685A6262B610BDFFF7E3FF142055
:10215000FEF7BCF8D4000020D00000209D2000082D
:1021600010B5284B01781B788B4247D9264B1B684A
:10217000024653F831402548844203EBC1033DD168
:102180005868EFF3108472B621490B68002B37D0E2
:10219000D3F800C0C1F800C084F3108854685C60B4
:1021A00092689A6072B6826A0021196022B1C26A8E
:1021B0001360C36262B610BD90F83020836251078D
:1021C000C36214D442F0040380F8303093074461B2
:1021D00008D4FEF749F80F4BC0E90134FEF782F846
:1021E00062B610BD83681B1B002BF9DBF1E7436966
:1021F0001B1B002BE6DA1320FEF768F8FFF78AFFB7
:10220000FFF708FFD4000020D00000209D20000828
:1022100038000020CD03000838B5224B02781B7827
:1022200093423AD9204B21491B68044653F83200A7
:10223000884203EBC20330D15868FEF715F8836A71
:102240006BBB237990F83020D0E90654002B0ABFED
:10225000240401210021B3FA83F312F01002AC61CF
:102260004FEA53130CBF01240024A34201D0036A98
:102270001BB9114380F8301038BD0D4C0A4361681A
:1022800042F004020B440B4980F83020C0E90113EE
:102290004361BDE83840FEF725B8FFF73BFF122049
:1022A000FEF714F8D4000020D00000209D20000884
:1022B000001000E0CD03000890F82030DA071ED5AA
:1022C00070B523F005030446C06984F8211043F07B
:1022D00004030E4684F8203050B10025D0E90023D5
:1022E0003146E261C0E900559847E0690028F5D120
:1022F000034B00221A72034B01221A7070BD704703
:1023000028000020AC00002010B5D0E9032312699A
:1023100090F824401A4218BFE44304F001046CB959
:1023200090F82630013B13F0FF0310D082688169DA
:1023300080F826300A448260012010BD0749C26936
:1023400090F8253080F82630C0E90112F4E790F8C3
:102350002710006AFFF7B0FF204610BD6123000878
:10236000D0E9023210B41469D0E904121A4490F88A
:1023700024300C4218BFDB4303F001031BB1826021
:1023800010BC01207047034B10BCC2614360FFF7D3
:10239000BBBF00BF0923000808B503460C38997D70
:1023A000FFF78AFF002008BD90F820200849034667
:1023B00042F00402002083F8202008729A68D3F8C3
:1023C00018C004490120624408709A60704700BF39
:1023D00028000020AC00002000B5034683B0D3E9FC
:1023E0000012684603F042FC03B05DF804FB00BF36
:1023F000F0B5054683B00F4900781422FFF7E8FDD9
:10240000AF6869686E46B7FA87F2520904463046EB
:1024100003F02CFC96E8030004F1080383E80300B2
:10242000002F237C0CBF012209221343237403B025
:10243000F0BD00BFF123000808B51E20FDF746FFE0
:1024400008B5D0E908311A6812F0100F0AD09207C7
:1024500002D55A6B8A4209D0836803F5D263836040
:10246000012008BD264A59639A60F5E76FF0100213
:102470001A6090F82A2090F82B10DB6C8A429BB2ED
:102480001CD301228A42038380F82A2021D3428B65
:102490009A4224D8828B9A4221D31A4B002280F888
:1024A000282000221A72184A4369D0F80CC0012172
:1024B0006344117043618360012008BDB0F818C007
:1024C0000132D2B263449BB28A42038380F82A204D
:1024D000DDD28368026913448360012008BD90F84F
:1024E000283090F829200133DBB29A4280F8283056
:1024F000044BD6D85A7A002AD0D11A20FDF7E6FE2E
:102500000100004028000020B0000020F0B5054682
:1025100083B0482222490078FFF75AFDEF68002F68
:10252000D4BF0022012292006E4680F84420044667
:102530006968304603F09AFB96E8030004F1200333
:1025400083E803000022A968304603F08FFB96E879
:10255000030004F1280383E80300124B4FF04042CC
:10256000198822632A69E26100236363A363A1B926
:102570000D4B19780F299CBF102119704AB9002FF3
:1025800007DA94F8443043F0100384F8443003B081
:10259000F0BD064B636003B0F0BDFFF73FFD00BF29
:1025A0000D250008440000203C00002039360008BA
:1025B00010B5104B02781B78934218D90E4B0F4977
:1025C0001B6853F832408C4203EBC2020FD14368C0
:1025D0005168003B18BF01235B0072B691F844209C
:1025E00022F00202134381F8443062B610BDFFF7B7
:1025F00091FD00BFD4000020D00000200D25000870
:1026000010B5114B02781B78934217D90F4B104924
:102610001B6853F832408C4203EBC2030ED15B6857
:10262000416872B65A695AB993F84420996022F009
:102630000802996183F8442062B610BDFFF76AFD75
:102640001620FDF743FE00BFD4000020D00000207C
:102650000D25000810B5184B027893F800C06245AC
:1026600024D2164B1B6853F8321003EBC20E144AE7
:1026700091421BD10179DEF80420614516D253F84E
:1026800031401048844203EBC1030FD15B6802F173
:102690003C00EFF3108172B6146C4CB90A4C146410
:1026A000DC69D463D86181F3108810BDFFF732FD77
:1026B0001920FDF70BFE00BFD4000020D000002041
:1026C0000D250008A52B00083528000810B5104B73
:1026D00002781B78934219D90E4B0F491B6853F8A7
:1026E00032408C4203EBC20310D15C684068216821
:1026F0000A4B4A68B3FBF0F322F4FD42023BDBB223
:1027000022F07F021343A0604B6010BDFFF702FD73
:10271000D4000020D0000020452C0008006CDC0212
:1027200008B5134B01781B788B421ED9114B124A06
:102730001B6853F83100904203EBC10315D15B686D
:1027400072B693F844001A6B5B69C0064CBFD21A8C
:10275000A2EB5302002AB8BF524262B60748BDE856
:10276000084002F14042FDF7D7BEFFF7D3FC00BF9F
:10277000D4000020D00000200D250008407C000877
:1027800010B5134B01781B788B4282B01DD9114BC9
:10279000114A1B6853F83100904203EBC10314D176
:1027A000586872B690F82420C36962B6D0E9034035
:1027B0002469044214BF0124002408480094C2F391
:1027C0004002FDF7A9FE02B010BDFFF7A3FC00BF59
:1027D000D4000020D0000020712B0008387C0008B5
:1027E00070B5104B01781B788B42D0E9014217D9A4
:1027F0000D4B1B6853F8315003EBC1000B4B9D424E
:102800000ED1D2B2406804F10C031444B4F5805FD9
:102810000344BDE87040064888BF0022FDF77CBE37
:10282000FFF778FCD4000020D0000020452C0008E1
:10283000187C000870B504463C38FDF715FD237A76
:1028400054F80C1C002213F0100544F8342C44F802
:10285000242C27D054F8280C091A3CD403F0140275
:1028600054F8100C42F00802227254F8142C494219
:102870000026000444F8286C44F80C1C90611DB339
:1028800054F8083C6BB11B48016800E013461A6815
:1028900044F8082C1960036054F8082C1946002AE3
:1028A000F4D170BD54F8282CB1EB5201D6D554E9BF
:1028B000056203F0140040F008001204207244F88E
:1028C0000C1C44F8285CB26154E907125B0758BF3E
:1028D00012048A61D4E754E9055003F0140343F06D
:1028E0000803000444F80C1C44F8282C2372A86147
:1028F000C6E700BF38000020F8B5224F02783B78C9
:1029000093423CD9204E21493368054653F83200A2
:10291000884203EBC20332D15C682046FDF7A4FC79
:102920006B68A360AB68A3612B7B84F8253013B37D
:102930002969616184F826306B693A781449002B63
:102940000CBF0223032384F824302B7E61609A425B
:1029500015D9326802EBC30152F833200D4B9A426D
:102960000DD1EB694A6884F8273022622046BDE821
:10297000F840FDF7B7BC84F824302362F8BDFFF7B8
:10298000C9FB00BFD4000020D0000020712B00083C
:1029900061230008A52B000838B51D4B02781B7871
:1029A000934233D91B4B1C491B68054653F8320030
:1029B000884203EBC20329D15C6872B62046FDF75A
:1029C00053FC04F10C00FDF74FFCE36933B1002127
:1029D0001A461B68C2E90011002BF9D1002201231D
:1029E00084F8222023846B68A360AB68C4E90632B4
:1029F00023B9EB6884F8223062B638BD2046FDF773
:102A000071FCEB6884F8223062B638BDFFF782FBB8
:102A1000D4000020D0000020A52B000870B5124B78
:102A200002781B7893421DD9104B11491B6804464C
:102A300053F83200884203EBC20313D15D6872B6CB
:102A400095F82030DB0701D462B670BD05F10C06A5
:102A50003046FDF709FC63686B613046FDF742FCC8
:102A600062B670BDFFF756FBD4000020D0000020F6
:102A7000A52B000830B5154B05781B78AB4283B009
:102A800022D9134B134A1B6853F83510914203EBBC
:102A9000C50319D15C6872B601792046FFF70CFCBA
:102AA0002046FDF7E1FB04F10C00FDF7DDFB002201
:102AB00094F8213084F8202062B607480092294615
:102AC000FDF72AFD03B030BDFFF724FBD400002042
:102AD000D0000020A52B0008307C000838B5214B21
:102AE00002781B7893423AD91F4B20491B68054650
:102AF00053F83200884203EBC20330D15C682046B1
:102B0000FDF7B2FBD4E90830EFF3108272B6196812
:102B1000C90617D482F310886B686361A360AB6841
:102B200023612B7B84F82B305A1C84F82A202A69D5
:102B3000E260D5E90501EA6984F829206083A18370
:102B400043B938BD596B8842E4D16FF01001196068
:102B5000DB6CDFE72046BDE83840FDF7C3BBFFF77D
:102B6000D9FA00BFD4000020D0000020E52C0008D6
:102B700030B50B4983B0044628220078FFF728FAC5
:102B80006D4603466168A26828461C4603F06EF94C
:102B900095E8030004F10C0383E8030003B030BDA3
:102BA000712B000838B50F4B1A7803789A4216D962
:102BB0000D4C226852F83310DD0081B90B490988A9
:102BC00069B90B4942F833102420FFF7E7F923686D
:102BD0000849094A2B4458604160026138BD0B2006
:102BE000FDF774FBD4000020D0000020440000203A
:102BF000A52B0008A92300089923000838B50D4B20
:102C00001A7803789A4212D90B4C226852F8331082
:102C1000DD0061B90949098849B9094942F8331009
:102C20001420FFF7BBF923682B44586038BD0B20F4
:102C3000FDF74CFBD4000020D00000204400002011
:102C4000F123000870B5104B1A7803789A4218D90E
:102C50000E4D2A6852F83310DE0091B90C490988EC
:102C600079B90C4942F83310044641F20C00FFF7E1
:102C700095F92B686168084A33445860C0E901122D
:102C800070BD0B20FDF722FBD4000020D0000020F7
:102C900044000020452C0008801A060038B50D4B72
:102CA0001A7803789A4212D90B4C226852F83310E2
:102CB000DD0061B90949098849B9094942F8331069
:102CC0001020FFF76BF923682B44586038BD0B20A8
:102CD000FDF7FCFAD4000020D000002044000020C2
:102CE0009D2C000838B50546224B4068002402E0C0
:102CF0000134132C21D013F8012B9042F8D11E4B34
:102D0000D3F84428D2051BD5FE2811D11B4B4FF414
:102D100000025A601A4928782C22FFF759F9194AFB
:102D200019494160012380F82A30C0E9082438BDE0
:102D30000022032102F0E4FAECE72D20FDF7C6FAA9
:102D4000EFF3108172B6D3F8442842F48072C3F8CE
:102D50004428D3F8443881F310880A4B0B4ADA60D0
:102D600002F100521A61FE284FF001029A60CDD0A4
:102D7000DEE700BFF07C0008003002400023014085
:102D8000E52C000800200140412400082449920459
:102D90002DE9F0472F4B02781B78934251D92E4BE7
:102DA0002E491B6853F832408C4203EBC20348D1D2
:102DB000047A5D68032C49D82B7C13F0060F45D1AB
:102DC000D0F804A0C768BAF1060F3CD8DFF890909D
:102DD00059F83A60304602F04DFA8046A8B12148D1
:102DE00000231946013320FA03F2974227D2082B19
:102DF000F7D138212B7C0C4343F0040344F4517485
:102E00002B74C5E90064BDE8F08709EBCA093046B8
:102E100002F0EAF999F807A099F804005146012256
:102E200002F06EFA99F805004246514602F068FA3F
:102E300099F806004246514602F062FACFE7C9000F
:102E4000D8E7FFF767F93120FDF740FA1B20FDF7BF
:102E50003DFA00BFD4000020D0000020F12300087C
:102E6000B87C000880DE800210B53A4B02781B78EF
:102E7000934269D9384B39491B6853F832408C4228
:102E800003EBC20360D142685C68002A5ED134481B
:102E900002F0F0F900282FD0314A3249536823F468
:102EA000FD4323F07F0343F0760353605368032010
:102EB00023F4807353601060D1F8FC30DB010FD530
:102EC00029494A6802F5243240324B689B1A002B8C
:102ED000FBDB234B5A6842F480725A60236010BDBA
:102EE000D1F8FC30204A43F08073C1F8FC301368FD
:102EF00043F001031360E3E7194802F075F901227A
:102F000040F2C221282002F0FBF9012240F2C22146
:102F1000292002F0F5F9012240F2C2212A2002F014
:102F2000EFF9012240F2C2212B2002F0E9F901223F
:102F300040F2C221322002F0E3F9012240F2C22124
:102F40002C2002F0DDF9A7E7FFF7E4F83220FDF7C7
:102F5000BDF900BFD4000020D0000020452C00089F
:102F6000002C014000ED00E0001000E02DE9F843E6
:102F7000264A03781278077B9A4241D9244A12687C
:102F800002EBC30152F83320224B9A4238D1D0F8D9
:102F900004804D68B8F1030F34D8DFF87C9059F8FD
:102FA0003840204602F066F9064640B12B7B2C6083
:102FB0007F0043F002032F712B73BDE8F88309EB08
:102FC000C809204602F010F999F8058099F8040024
:102FD00001224FF4A17102F093F9012240464FF40F
:102FE000A17102F08DF94FF4004323602A2326607B
:102FF000D22263602B23E261236201232360D5E7A1
:10300000FFF788F83020FDF761F900BFD4000020F9
:10301000D00000209D2C0008987C000870B5114B52
:1030200002791B7893421AD90F4B10491B6804464A
:1030300053F83200884203EBC20310D1257A0C49C1
:1030400020785E6805F10802FEF7C2FF0571E168AD
:1030500006602A460530BDE8704003F0C1BDFFF7A9
:1030600059F800BFD4000020D0000020F123000850
:103070001D30000870B5104B01781B788B42D0E9E9
:10308000014216D90D4B0E4D1B6853F83160AE420C
:1030900003EBC1030DD1D2B2A118B1F5805F00D905
:1030A00070BD5B68C1680C341819BDE8704003F04E
:1030B00097BDFFF72FF800BFD4000020D0000020FC
:1030C000452C000870B5154B04781D78017982688D
:1030D000037BA54288B01FD91148124D006850F8F3
:1030E0003460AE4200EBC40016D1406804AD0DF16F
:1030F0000F064FF0000C0068009501968DF80FC088
:1031000003F0C4F89DF80F300095024621460648AA
:10311000FDF702FA08B070BDFEF7FCFFD4000020F6
:10312000D0000020452C0008007C00082DE9F04369
:10313000474B05781B780779D0F80890AB4283B0ED
:1031400040F28480434B1B6853F8351003EBC502F3
:10315000414B99427AD15668404AB368D6F8048008
:103160004FF4FA7101FB03F3A2FB032340469C09D1
:1031700003F01CF9F028336825D039460027DF62B8
:103180005C62C3F82880DC6A24F0F70C4CEA00008B
:1031900040F00300D8624A4630680123CDE9007749
:1031A00003F074F830B97368B3F5805F0ED9024646
:1031B000034601E002463B462948294603B0BDE8E4
:1031C000F043FDF7A9B906220023F5E756F80C1BDA
:1031D0001A4601E0870222D4486B10F4957F486BB1
:1031E000F8D0204C8C6304072AD487072AD484069D
:1031F0002AD4486B80020ED56AB1D1F88000341D04
:1032000006F8010BA64202F1FF324FEA1020F0D07F
:10321000002AF5D14A6B134A8A630022CCE7D1F821
:10322000800052B1341D06F8010BA64202F1FF32B4
:103230004FEA102002D0002AF5D134462646CBE7CB
:103240000722B9E70422B7E70822B5E7FEF762FFD5
:10325000D4000020D0000020452C0008D34D62107F
:10326000087C0008FF0540002DE9F0433F4B05783E
:103270001B780779D0F80890AB4283B073D93C4BE8
:103280001B6853F8351003EBC5023A4B99426AD1DB
:103290005668394AB368D6F804804FF4FA7101FBD6
:1032A00003F3A2FB032340469C0903F07FF8F028B8
:1032B000336825D039460027DF625C62C3F8288076
:1032C000DC6A24F0F70C4CEA000040F00100D86200
:1032D0004A4630680123CDE9007702F0D7FF30B9C4
:1032E0007368B3F5805F0ED90246034601E00246DB
:1032F0003B462248294603B0BDE8F043FDF70CB930
:1033000006220023F5E756F80C1B1F4602E012F4D4
:10331000803210D04A6B12F48D7F4A6BF7D0184878
:10332000886310071BD491071BD412F0100F14BF31
:1033300009220022DDE77FB1B44614461CF8010BD8
:10334000182C00FA04F007F1FF3742EA0002664643
:1033500002D00834002FF1D1C1F88020DAE707222B
:10336000C7E70422C5E7FEF7D5FE00BFD400002062
:10337000D0000020452C0008D34D6210107C0008BE
:10338000FF0540002DE9F0411B4B02781B7893426A
:103390002FD91A4B1A491B6853F832408C4203EB61
:1033A000C20326D15B6805791A7B8468D20718D5D9
:1033B0009F686E1E97F82010384602F01FFAF6B28A
:1033C00055B1651C2E4400E001352178384602F0E5
:1033D00001F9AE422C46F7D13846BDE8F04102F083
:1033E00095BA197918682A462346BDE8F04103F0DA
:1033F00071BBFEF78FFE00BFD4000020D00000207C
:103400009D2C00082DE9F0411C4B82B01B780478FC
:10341000A34202AF30D91A4B1A4A1B6853F8341032
:10342000914203EBC40327D15E68057B96F80CC07C
:103430000179EB1D03F4FC73ADEB030D1CF0010FE0
:1034400083680DF108080FD130680A463179CDE95B
:10345000005803F0DFFA0C4843462A462146FDF7A0
:103460005BF8BD46BDE8F081B068CDF800801A4633
:103470002B4602F0B9FAEEE7FEF74CFED40000202E
:10348000D00000209D2C0008F87B00082DE9F04FAB
:103490004B4B85B01B780278934202AF40F28B8091
:1034A000484B49491B6853F832408C4203EBC20336
:1034B00040F08180C668D3F804A005798368F207DC
:1034C0007BD4C6F3470605EB060B0BF1070222F08F
:1034D0000702ADEB020D02AC9AF80C20D0F8109068
:1034E0007A6019462A4620463B6003F079FB7A68E9
:1034F00012F001037B60A0463B6843D162199AF841
:103500000410DAF80000019200962A4603F082FACD
:10351000002E43D06A1EB01820442244013209EB29
:103520000203A3EB050CACEB040C11789CF800C073
:1035300033445B1B21EA0C011B1B11701B78824278
:1035400041EA03011170E9D17B683BB3DAF8085016
:103550005FFA8BF695F82010284602F04FF9731E9B
:10356000DBB246B101331C4418F8011B284602F0B7
:1035700031F8A045F8D1284602F0C8F90C37BD460D
:10358000BDE8F08F1A466319DAF80800009329465F
:10359000334602F029FA002EBCD1D7E79AF804107E
:1035A000DAF8000023465FFA8BF203F093FA0C3747
:1035B000BD46BDE8F08FFEF7ADFD1C20FCF786FE92
:1035C000D4000020D00000209D2C0008426B12B9CE
:1035D00042611046704710B4D2E90043B2F90810B6
:1035E00001824463CC1890F84410C460C90612D517
:1035F000816854890B44214644618360137BDB0757
:103600000FD4036B0B4403630A4B10BC19681160A1
:1036100001201A60704784695189234483614C00FA
:10362000EAE7036B846AC91A63690163C16A4B40A4
:103630006361E9E738000020D0E9082138B5536913
:103640004B401549536143694D68C269013B1544BC
:10365000DA070446436102D5A560012038BD6BB18D
:10366000C1688369B0F910200B440A44591B836177
:10367000C26015EA210538BF1D46EDE7FFF7A6FF3A
:103680000028EBD0A3685B1BE8D5044A9342E3DA39
:103690001820FCF71BFE00BF001000E0E0B7FEFFA3
:1036A00010B5344B02781B7893425BD9324B3349C7
:1036B0001B6853F832408C4203EBC20352D15C6862
:1036C000EFF3108272B62E490B68002B4FD0D3F85F
:1036D00000C0C1F800C082F3108842685A600289B5
:1036E0005A81002A40D0C068188100221A7372B62D
:1036F00094F8442002F0010CC2F34000844505D048
:10370000187B40F0010082F0010218736069B8B9BB
:1037100012F0080004D00A681A600B6062B610BD8F
:10372000616B84F844201860A9B1A26B1360A36395
:103730002046FFF74BFF2046FCF7D4FD62B610BDD4
:10374000616B84F844200020186039B1A26B1360CB
:10375000A36362B610BD6363A363E9E76363A36316
:1037600062B610BDFEF7D6FC1720FCF7AFFDFEF7E2
:1037700051FC00BFD4000020D00000200D2500081F
:10378000380000202DE9F04F047C85B014F0060FBE
:10379000029435D014F0020E1646046833D14768FF
:1037A0002268BA4204D022F04002226022682760D8
:1037B000029A12F00102039240F0BF80721ED2B250
:1037C0006EB19E185A1E12F8013F2373A368DD07DD
:1037D000FCD5237BDBB201B11370B242F3D1A368F5
:1037E00003F08203022BFAD1039B4BB1029B1B0710
:1037F000D0E9028C40F19C804FEA0C43C8F81830A5
:1038000005B0BDE8F08FD4E9045794F8189019F08A
:10381000020F04BF3A04AA61029A18BFAF6112F006
:103820000102039240F09180721ED2B2002EE7D0C6
:103830009A180192013B13F801CF4FF0080E0022B5
:103840002CE0EFF3108B72B66E6977406F618BF3EB
:103850001088D4E902561CF0800F08BF3604AE6110
:103860004FEA4C0CD4E904565FFA8CFCEFF3108A53
:1038700072B66F697E406E618AF31088256866684B
:103880002D6952003542D2B218BF42F00102BEF19A
:10389000010E38D0D4E9045794F8189019F0010FAC
:1038A000CFD1D4E902B61CF0800F08BF4FEA064919
:1038B0004FEA4C0C14BFCBF81860CBF818905FFAA5
:1038C0008CFCEFF3108B72B6D5F8149087EA0907D9
:1038D0006F618BF31088256866682D695200354248
:1038E000D2B2D4E9045718BF42F00102EFF3108AB4
:1038F00072B6D5F8148088EA07076F618AF31088DA
:10390000BEF1010EC6D101B11A70019A93423FF483
:103910006BAFD4E9045794F818908CE74FEA0C4247
:10392000C8F81820BEF1000F22D0721ED2B2C6B95C
:10393000C8F818C005B0BDE8F08F029A1207D0E9A8
:10394000028CEBD5C8F818C038E7029A1707D0E9FF
:10395000028CE3D5721EC8F818C0D2B2002E3FF414
:103960004BAF0126D4E9045794F8189003965FE70B
:103970000122039222E700BF70B5104B04781B7838
:10398000A34218D90E4B0F4A196851F8345095428A
:1039900001EBC4010FD186680579486833462A4691
:1039A0000121FFF7EFFE33462A4621460648BDE8CF
:1039B0007040FCF7B1BDFEF7ADFB00BFD4000020A6
:1039C000D0000020F1230008207C000870B50C4BCB
:1039D00002781B78934210D90A4B0B4C196851F8A6
:1039E0003250A54201EBC20107D1836802794868D1
:1039F000BDE870400021FFF7C5BEFEF78BFB00BF9E
:103A0000D4000020D0000020F123000870B4867F8D
:103A100084467EB100EBC600634600260122D3E94E
:103A200008140D690833254218BF16435100984207
:103A3000CAB2F4D19CF81020B24208D09CF81130E0
:103A40007340DB4382EA0601DBB20B4215D19CF9DD
:103A50001C209CF81C308CF81160002A05DB013B0F
:103A6000DBB2FF2B24D08CF81C30DCE9023213448B
:103A7000012070BCCCF80830704722EA03023340C2
:103A80001A439CF812308CF81020072BDFD8591CF1
:103A900063448CF812100A49DA7400230B72094A45
:103AA0008CF811600121FF2311708CF81C30DCE7C9
:103AB000034A00211172034A01211170D3E700BFAC
:103AC00028000020B4000020D0E9032130B553695C
:103AD000456A4B405361437F90F81CE0C47F01333B
:103AE000DBB28EF0010EA34280F81CE02AD200EB7C
:103AF000D30203F0070192F828200A418EEA02025D
:103B0000D207294618D407E092F8282042FA0CF28E
:103B10008EEA0202D2070FD40133DBB2A34200EBDC
:103B2000D30203F0070C2944EED38368064A4260AF
:103B300019448160012030BD82684377114481605F
:103B4000012030BD2946F0E725550008C268194913
:103B5000536910B4046963405361437F027F49682D
:103B60000133DBB282F00102012B027743771CD0D4
:103B7000042B836805D8026A10BC134483600120BB
:103B80007047426A10BC1A44891A11F1020C026A89
:103B900048BF01F1050C0B4402EBAC02064942623E
:103BA000134441608360012070478368C91A4162F1
:103BB000E1E700BF001000E0C93A0008D0E90912AF
:103BC000034608699969104218BF4FF0010C01F0D3
:103BD000010008BF4FF0000C84459A681CBF0131FA
:103BE000C3E906125969891A002904DBD96811440E
:103BF00001209960704710B4196993F82000094CAE
:103C0000114440F00100002283F820005961227223
:103C100005499A6801200870D96810BC1144012038
:103C20009960704728000020BC000020F0B4D0E963
:103C30000345D0E905671A4A4FF0080C0B0624D457
:103C40005068103053681B1A002BFBDBEFF3108019
:103C500072B663696B40636180F3108850681030FE
:103C600053681B1A002BFBDB4900C9B2EFF310802D
:103C700072B663696B40636180F310880CF1FF3C9E
:103C80001CF0FF0CDAD1F0BC7047EFF3108072B675
:103C900073697B40736180F31088C943C9B2CFE771
:103CA000001000E02DE9F84F17460D4617F801BB4C
:103CB000D0F800A046681B4C0BF0F00191468046FE
:103CC000FFF7B4FF6368A3EB0A039E42FAD84FEAFA
:103CD0000B1101F0F0014046FFF7A8FF012D6468C9
:103CE000D8F8086019D0AB1EDBB202330D4D9944F1
:103CF00017F801AB40460AF0F001FFF797FF6B6839
:103D00001B1B9E42FBD84FEA0A1101F0F00140460E
:103D1000FFF78CFFB9456C68EAD1C8F80040BDE8F0
:103D2000F88F00BF001000E02DE9F04F037A826B9E
:103D3000D0F81C9083B0D0E90545D0E908AED0E9B1
:103D40000A86D0E90C7B4B400192EFF3108C72B6DF
:103D500062696A4062618CF31088DA064BD49A0675
:103D600056D45A0661D41B0669D4524A536803F1EB
:103D7000130C5368A3EB0C03002BFADBEFF3108C4E
:103D800072B663696B4063618CF310884FEA011C63
:103D90005FFA8CFC80F808C05268464816324368C7
:103DA0009B1A002BFBDB8CEA010CEFF3108272B63E
:103DB00063696B40636182F310881CF0100F6DD152
:103DC0001CF0200F5ED11CF0400F44D11CF0800F7E
:103DD0004CD138494A6813324B689B1A002BFBDBE5
:103DE000EFF3108372B662695540656183F3108802
:103DF00003B0BDE8F08FEFF3108C72B6D9F8142041
:103E00008AEA0202C9F814208CF310889A06A8D511
:103E1000EFF3108C72B6DEF8142088EA0202CEF8B6
:103E200014208CF310885A069DD5EFF3108C72B6CF
:103E300072697A4072618CF310881B0695D5EFF396
:103E4000108C72B6DBF81430019A5340CBF8143062
:103E50008CF3108889E7EFF3108372B672695740CC
:103E6000776183F310881CF0800FB2D0EFF31082DB
:103E700072B6DBF8143001995940CBF8141082F374
:103E80001088A6E7EFF3108272B6DEF8143088EAE5
:103E90000303CEF8143082F3108894E7EFF3108216
:103EA00072B6D9F814308AEA0303C9F8143082F3E1
:103EB000108885E7001000E0074B00221A72C27FCD
:103EC0008368D0F80CC00549634442F00102C27710
:103ED000836001200870704728000020C000002087
:103EE000027D0549034642F0010200201A7508725E
:103EF000024B01221A70704728000020C4000020E5
:103F0000027D510703460ED5C27D0132C275084AB3
:103F1000002111729A68D3F80CC00649012062444E
:103F200008709A60704742F004020275EFE700BF24
:103F300028000020C8000020027E0549034642F008
:103F4000010200201A760872024B01221A70704793
:103F500028000020CC000020027D0549034642F0E5
:103F6000010200201A750872024B01221A70704774
:103F700028000020D800002072B6024B024A9D465D
:103F80001047704700000120414C0008FEE700BFC9
:103F9000826903461168C06810B5124C9961118995
:103FA000016020681060986922609A8A50B98A423C
:103FB00007D0186928B19A680B490244C3E9011275
:103FC000012010BD8A42406801D01A690AB9986080
:103FD000F6E799680A44121A002AF8DA1D20FCF75D
:103FE00075F900BF380000203924000810B50479A5
:103FF000082C09D8221D06490078D200FDF7E8FFF9
:10400000044B8477436010BD2120FCF75FF900BFAB
:10401000ED3F00080D3A0008027A4168007802F08E
:10402000B9BB00BF70B5027B81680446007902F01D
:10403000B1FB0E49054620222078FDF7C9FF0C4A46
:104040000346D4E9046011880A4CDD6000225C60FC
:104050009E8218619A61DA6131B9074B1A780B2A8E
:104060009CBF0C221A7070BDFDF7D8FF25400008D8
:1040700044000020913F00083C00002038B5234B4D
:1040800002781B7893423CD9214B22491B6853F894
:1040900032408C4203EBC20333D15D68EFF31082F0
:1040A00072B61D4B1C68002C2DD02168196082F35C
:1040B0001088436863608368238172B6AB6900220D
:1040C000226023B1EB691C60EC6162B638BDAC6163
:1040D000EC6162B62846FCF7C7F8104B6A689A4252
:1040E000636807D00E4A2846C5E90123BDE8384079
:1040F000FCF7F8B8AA68D21A002AF3DA1D20FCF7F8
:10410000E5F8FEF707F8FDF785FF00BFD4000020B3
:10411000D000002025400008380000203924000885
:10412000913F000838B5194B02781B78934228D983
:10413000174B18491B68054653F83200884203EBB9
:10414000C2031ED15C682046FCF78EF86B68A36042
:10415000A968E1602A7C0023A37462F3070362F379
:104160000F234FF47E422382A4F81B20EB68637771
:104170001B0608D401B938BD2046BDE83840FCF71D
:10418000B1B8FDF7C7FF1F20FCF7A0F8D40000204E
:10419000D0000020ED3F000810B5184B02781B78C6
:1041A000934228D9164B17491B6853F832408C426A
:1041B00003EBC2031FD15C680379E27E1A44E27606
:1041C00072B6A27C9A4205D80022FE23A2742377FD
:1041D00062B610BDD21AD0B2123304F112022344D7
:1041E00002EB000C13F8011F02F8011F6245F9D120
:1041F000A07462B610BDFDF78DFF00BFD400002093
:10420000D0000020ED3F000838B5104B02781B7835
:10421000934219D90E4B0F491B68044653F83200DC
:10422000884203EBC2030FD15D682846FCF71CF8F7
:104230006368AB60A268EA60E2682846C5E90423C7
:10424000BDE83840FCF74EB8FDF764FFD40000200D
:10425000D0000020AD5F000838B50F4B02781B7806
:10426000934217D90D4B0E491B68044653F8320090
:10427000884203EBC2030DD15D68F8212846FFF7A1
:10428000D5FC217901B938BDA2682846BDE838407F
:10429000FFF708BDFDF73EFFD4000020D00000204E
:1042A000155D000838B50F4B02781B78934217D97B
:1042B0000D4B0E491B68044653F83200884203EB4D
:1042C000C2030DD15D68FA212846FFF7AFFC2179C2
:1042D00001B938BDA2682846BDE83840FFF7E2BC06
:1042E000FDF718FFD4000020D0000020155D000865
:1042F0002DE9F843194B02781B7893422CD9184BBF
:1043000018491B6853F832408C4203EBC20323D197
:104310005F68D7E903231B0493610179D0F8089003
:104320004B1ED7E90025DBB299B109F101060E4C0D
:1043300006EB03084B46B146197863689B1A9D4209
:10434000FBD83846FFF7F0FC4645626801D00136DD
:10435000F0E73A60BDE8F883FDF7DCFED40000200A
:10436000D0000020A95D0008001000E02DE9F8430E
:10437000194B02781B7893422BD9184B18491B68AC
:1043800053F832408C4203EBC20322D15F68D7E975
:1043900003329A610179D0F808904B1ED7E90025C5
:1043A000DBB299B109F101060E4C06EB03084B464E
:1043B000B146197863689B1A9D42FBD83846FFF7CF
:1043C000B3FC4645626801D00136F0E73A60BDE8CB
:1043D000F883FDF79FFE00BFD4000020D00000202E
:1043E000A95D0008001000E038B5057A032D1BD840
:1043F0000F49044620220078FDF7EAFD0D4B0E49D7
:104400001A78237941609A420CD90C4A126802EB5F
:10441000C30152F833200A4B9A4203D14B68857787
:10442000836138BDFDF776FE2720FBF74FFF00BF05
:10443000E9430008D4000020B93E0008D000002065
:10444000F123000838B5144B02781B78934220D929
:10445000124B13491B68044653F83200884203EBA1
:10446000C20316D15D682846FBF7FEFE6368AB60A9
:10447000A368EB6003B938BDE3682B6123696B6106
:1044800062692A7700236B772846BDE83840FBF73E
:1044900029BFFDF73FFE00BFD4000020D000002060
:1044A000E943000810B50D49044650220078FDF795
:1044B0008FFD0B4B22791B780A49416093420BD93F
:1044C000094B0A491B6853F832408C4203EBC20384
:1044D00002D15B68036110BDFDF71CFEA544000816
:1044E000D4000020E13E0008D0000020F1230008A5
:1044F00038B5144B02781B78934221D9124B1349DB
:104500001B68054653F83200884203EBC20317D1FB
:104510005C682046FBF7A8FE002323756A6802B991
:1045200038BDE260C4F81630A37672B6084AE36874
:10453000526813442046A360FBF7D4FE62B638BD30
:10454000FDF7E8FDD4000020D0000020A5440008BD
:10455000001000E038B5057A032D1ED81249044634
:1045600054220078FDF734FD104B11491A78237955
:1045700041609A420FD90F4A126802EBC30152F808
:1045800033200D4B9A4206D14B6803611B7CDB073D
:1045900006D5457538BDFDF7BDFD2920FBF796FE14
:1045A0002820FBF793FE00BF55450008D4000020EB
:1045B000013F0008D0000020F123000838B5134B5C
:1045C00002781B7893421FD9114B12491B6804468D
:1045D00053F83200884203EBC20315D15D682846C8
:1045E000FBF742FE00232B75A26802B938BD626852
:1045F000AA60A268EA602B77E268AA75AB612846D8
:10460000BDE83840FBF76EBEFDF784FDD400002006
:10461000D00000205545000810B50D49044654222D
:104620000078FDF7D5FC0B4B22791B780A494160D5
:1046300093420BD9094B0A491B6853F832408C420C
:1046400003EBC20302D15B68036110BDFDF762FD9D
:1046500019460008D4000020393F0008D00000208F
:104660009D2C000838B5154B02781B78934222D94F
:10467000134B14491B68054653F83200884203EB7C
:10468000C20318D15C682046FBF7EEFD00232376B9
:104690006A6802B938BDE260C4F81A30A377636172
:1046A00072B6094AE368526813442046A360FBF7D8
:1046B00019FE62B638BDFDF72DFD00BFD400002005
:1046C000D000002019460008001000E010B50D4988
:1046D000044650220078FDF77BFC0B4B22791B78B7
:1046E0000A49416093420BD9094B0A491B6853F8A8
:1046F00032408C4203EBC20302D15B68036110BD00
:10470000FDF708FDCD460008D4000020593F000801
:10471000D0000020F123000838B5144B02781B7834
:10472000934221D9124B13491B68054653F83200B6
:10473000884203EBC20317D15C682046FBF794FD67
:10474000002323756A6802B938BDE260C4F81630E8
:10475000A37672B6084AE368526813442046A36001
:10476000FBF7C0FD62B638BDFDF7D4FCD4000020D5
:10477000D0000020CD460008001000E02DE9F041F7
:10478000254B02781B78934240D9244B24491B685F
:1047900053F832408C4203EBC20337D15C68257F6B
:1047A00015F0020801D0BDE8F08106798168077B29
:1047B0000A2E2DD80A2F2BD8324604F1280005F0F6
:1047C000310502F00DFA45F00205FF00F30084F810
:1047D0001D802577E377A7772EB194F8283003F072
:1047E0003F032A2B10D0226A0E4B6262636072B6BE
:1047F0000D4B5B6803F5834320332046A360FBF732
:1048000071FD62B6BDE8F081084BEFE7FDF782FC71
:104810002220FBF75BFD00BFD4000020D000002069
:10482000315F0008C93A0008001000E04D3B000865
:1048300010B5124B02781B78934219D9104B1149CD
:104840001B6853F832408C4203EBC20210D143681C
:104850005468D0E9022118040CD4A08A03EB020C9E
:10486000844507D81633E018BDE8104002F0B8B907
:10487000FDF750FC2320FBF729FD00BFD4000020EA
:10488000D0000020C95C00082DE9F047474B0178B3
:104890001B788B4240F28880454B464A1B6853F890
:1048A0003100904203EBC1037ED1D3F80480424C27
:1048B000D8E9030263681B1A9A42FBD83E4BB8F84A
:1048C0001420D8F808605868D8E900C508F1160720
:1048D00082B307EB020917F801EB08241EF0800FE2
:1048E00032D05A68121A682AFBD972B6D3F804A0DB
:1048F000DCF814206A40CCF8142062B6AAEB000061
:10490000864244D94FEA4E0E5A68A2EB0A02352A73
:10491000FAD972B6DCF814206A40CCF8142062B6DA
:1049200058685A68121A0F2AFBD9013C5046D5D153
:104930004F45D0D1204B21485B68C8F80C3001228C
:10494000BDE8F047FBF7E8BD5A68121A682AFBD9A0
:1049500072B6D3F804A0DCF814206A40CCF8142016
:104960005A68A2EB0A020F2AFAD9DCF814206A402E
:10497000CCF8142062B6AAEB0000864207D9013CAD
:104980004FEA4E0E5046A9D14F45A4D1D2E72D048F
:10499000094BCCF818505B68C8F80C300748BDE8E4
:1049A000F0470022FBF7B8BDFDF7B4FBD4000020B0
:1049B000D0000020C95C0008001000E0E07B000887
:1049C000F0B51B4B02781B78934287B02DD9194B59
:1049D00019491B68044653F83200884203EBC203AE
:1049E00023D15D68154E2869B923ADF81430022231
:1049F00005AB01217768FEF7C5FE9DF815207368A9
:104A000022F08002202A0ED8288B21780290A87EDE
:104A100002EB820C60440190EC8A09480094DB1B95
:104A20003A46FBF779FD07B0F0BDFDF773FB00BF19
:104A3000D4000020D0000020A5440008001000E0B1
:104A4000C07B00082DE9F043294B04781B78A34272
:104A500083B04AD9274B284A1B6853F83410914237
:104A600003EBC40341D15B68057993F81580866830
:104A7000B8F1020F1FD0DFF884901869D9F80470DC
:104A800033462A460121FEF77DFED9F8042041F283
:104A90006801D01B884294BF2B460023B8F1010F58
:104AA00008BF1746164800963A462146FBF734FDE4
:104AB00003B0BDE8F0831969104AD1E9027C4FEADE
:104AC0000C41B961506854305168411A0029FBDA31
:104AD00072B6C7F818C0576862B6012118692A462D
:104AE0003346FEF74FFE2B46DCE7FDF713FB00BF16
:104AF000D4000020D000002055450008001000E040
:104B0000C87B0008F0B51A4B02781B78934287B037
:104B10002BD9184B18491B68044653F832008842B9
:104B200003EBC20321D15D68144F2869AF23ADF8B0
:104B30001430022205AB01217E68FEF723FE2A8B8A
:104B40007B6802929DF8152021789B1B02F01F04C0
:104B50003246AE7E062010FB04600190EC8A0848C5
:104B60000094FBF7D9FC07B0F0BDFDF7D3FA00BF06
:104B7000D4000020D0000020CD460008001000E046
:104B8000C07B0008F0B5294B02781B78934289B0AE
:104B900049D9274B27491B68054653F832008842FC
:104BA00003EBC2033FD15C6823693A221979186884
:104BB0008DF818200DF11B0301220193009206AB22
:104BC00001F028FF9DF81B30DB0602D5A38B0133D3
:104BD000A3832369184F1979186872228DF814205D
:104BE00007AB7E68019302230093012205AB01F01D
:104BF00011FF9DF81CC0A28B7B689DF81D000292DE
:104C00004FEA0C2C2978A57F0CF4F85C40EA0C00E4
:104C100028440190648B094800949B1B3246FBF7A3
:104C20007BFC09B0F0BDFDF775FA00BFD400002091
:104C3000D000002019460008001000E0C07B0008EA
:104C400008B500224FF0FF31930003F1604303F5F4
:104C50006143C3F88010BFF34F8F0132082AC3F8B5
:104C60008011F1D1002342481946C2180133F02BBC
:104C700082F80013F9D14FF0E02304221A61BFF348
:104C80004F8F3C494FF0206200234A601846CA18F3
:104C900001330C2B1076FAD1BFF34F8FBFF36F8F18
:104CA00062B6354A354BB2EB030C08D0344A944413
:104CB00052F8040B1860624503F10403F8D1314A3D
:104CC000314BD21A06D0002099181A4604338B4271
:104CD0001060FAD12D4B2E482E4AD3E90041914263
:104CE00008BF844208D12C4A00200021C3E90001FA
:104CF000D2E900329D461047284B294C19681D48BF
:104D0000002241F0010119609A60196821F0847154
:104D100021F4803119605C601968224C21F48021F3
:104D200019604FF00061DA6081604FF46031846097
:104D300019635A631A645A641A681B4942F4803230
:104D40001A6059601A68194942F0807240F2057081
:104D50001A6008601A689201FCD549F202010F4AF4
:104D60009960936803F00C03082BFAD1FCF7A8FDB7
:104D700000E100E000ED00E0340000200000002031
:104D800010830008980200203400002000FC00205E
:104D9000544F4F42204253550000FF1F003802403D
:104DA0001030002400000008042A4107003C0240A3
:104DB0002DE9F04772B64B4E4B4DD6F80080DFF828
:104DC0002C91DFF82CA10DE0D9F804208B1AA82B28
:104DD00018463ADCA8EB0200002857DB62B6002B2D
:104DE0003CDC72B62C686368002B42D1D4E9080120
:104DF00063694269013B82EA0102426153D0D4E90E
:104E00000210B4F91020636101440244C4E90212A3
:104E100023689F68CA1B002AD6DB68682B608268FB
:104E20008A1A13EA220338BF034618461B689A6899
:104E30008A1A002AF9DAD9F80420236039468B1A35
:104E4000A82B04606C601846C4DD4FF0E0230022FC
:104E500058619A615A6162B6BDE8F087D9F80430AA
:104E6000CB1A002BBDDDD9F80430CB1A002BB8DDEE
:104E7000F4E720469847A1680028C9D16B682268EA
:104E80002A609C4291689FD16A609DE7534511DB7F
:104E900095F9080000281BDA02F5244808F11008EB
:104EA000C6F800809AE72046FEF790FBA16800282C
:104EB000AED1E3E76B7A93B195F90830002B07DAAE
:104EC00002F5244808F11008C6F8008062B688E7A9
:104ED00002F50352103232604FF4D270B5E72C2045
:104EE000FBF7F4F9DC00002028000020001000E0AF
:104EF000E0B7FEFF70B582B016461D460A46009325
:104F000004469DF818100F483346FBF705FB15B90A
:104F10002369B3420FD9637F227F0133DBB29A4208
:104F2000637701D902B070BD074B5B7A3BB10023B8
:104F3000637702B070BD6369B342F8D2EBE7262015
:104F4000FBF7C4F9D07B000828000020F0B54F4BD8
:104F500004460D4693E8070087B00DF10C0CACE851
:104F6000030003AB8CF80020012109222069FEF721
:104F700009FCA37E9DF80E209DF8146003F11B012F
:104F80000F2A21441FD902F0F000F0281BD023443F
:104F90004FF0FF32C1F80120DA76A37E0533DBB291
:104FA0002F2BA37653D8237D23F00103237572B6EC
:104FB000374AE368526813442046A360FBF792F92E
:104FC00062B607B0F0BD9DF810000F2839D89DF8E3
:104FD00012C0BCF10F0F04D90CF0F00EBEF1F00FAF
:104FE000D5D19DF813E0BEF1900FD0D126F0800608
:104FF000202ECCD802F01F0242EA4C124FEA8C0C51
:105000000CF0600C9DF80F709DF811E000F01F008F
:105010004CEA00004FF0000C67F3070C6EF30F2C06
:10502000234462F3174C60F31F6C9DF80D20DA7671
:10503000C1F801C0A37E0533DBB22F2BA37614D9B0
:1050400006E000F0F00CBCF1F00FA0D1BFE70026A5
:1050500004F11B020092E28A0E482946FBF75CFA33
:10506000E38A00220133A276E3821E2E0AD9238B23
:1050700001332383084B00221A72084B01221A7055
:1050800007B0F0BD012E8ED9F4E700BF247D0008E3
:10509000001000E0B87B000828000020C4000020B9
:1050A00010B4847D521A34B104F1FF3C012101FA9D
:1050B0000CF10A44E240FE2A0ED890F81CC000EB26
:1050C0000C010CF1030C4A771A0A8B77CA775FFA46
:1050D0008CF310BC03777047037FC11840F2FF14B4
:1050E0000A46A1F81D4003330021D177DBB210BC82
:1050F0000377704703693A4A70B50446D3E902065C
:10510000330483610D46516884B054315368CB1A1F
:10511000002BFBDA72B68661566862B6002342F253
:105120008432CDE901232069ADF80C300A2201ABAD
:105130000121FEF727FB0DF105000DF10B0C0523F6
:1051400010F8011F08224B4013F0800F4FEA430173
:105150001BBF5B0083F01D03CBB2DBB2013AF3D17E
:105160008445EDD19DF80D10DB43DBB299420BD0A5
:10517000237F40F2FF30E1180333A1F81D00CA7706
:10518000DBB2237704B070BD9DF80C30DB0609D587
:105190009DF906309DF80610002B07DB237F40F2B7
:1051A000FF40E8E7237F40F2FF50E4E70D4B761B1A
:1051B0009E42237F02D940F2FF10DCE79DF80750A2
:1051C0009DF80A004A02E11842EA4502C0F3450090
:1051D00003334877100A8A77C877DBB2D1E700BF7C
:1051E000001000E0E4BF01001A4B984210B426D82A
:1051F000194B98421BD900F13F4000F57F00800A0F
:105200000123834013F4E06F144C154A18BF0022A9
:10521000EFF3108072B6216819432160216812B142
:1052200000211360116080F3108810BC704700F1FA
:105230004040800A01230B4A0B4C8340E8E700F111
:105240003F4000F57E00800A0123084A084C834055
:10525000DEE700BFFFFF0140FFFF0040443802408F
:1052600024380240203802404038024010380240C2
:1052700030380240124B984216D8124B98420AD945
:1052800000F13F40104A00F57F00800A012383406F
:105290001068184070470D4A00F14040800A012311
:1052A000834010681840704700F13F40084A00F5FD
:1052B0007E00800A0123834010681840704700BFB9
:1052C000FFFF0140FFFF00404438024040380240E9
:1052D00030380240BFF34F8F0549064BCA6802F4CD
:1052E000E0621343CB60BFF34F8F00BFFDE700BF09
:1052F00000ED00E00400FA0508B5FFF7EBFF00BF82
:105300002DE9F0412C4B2D4D04092E6B53F8244010
:1053100004F13F4303F57E039B0A012707FA03F3D9
:1053200033432B63002A2B6BC1F3031801F00F05E5
:10533000C1F3002E00F00F0C4FEA512134D10CFACA
:1053400007F64FEADC0704EB870700F00700800050
:105350000F2308FA00F803FA00F03B6A23EA00037F
:1053600043EA08033B6220680323B34020EA0300BA
:10537000B54028432060E06820EA03000243E26071
:105380006268012000FA0CF00EFA0CFE22EA00021C
:1053900042EA0E026260A2680231B14022EA0303CF
:1053A0001943A160BDE8F0814FEA4C06D6BF022246
:1053B00007FA06F2B240C4E7047D00080038024054
:1053C00070B582B002AB03E903001249019D0446A7
:1053D000002351F8040F844211D00133082BF8D177
:1053E0000020EFF3108672B602B92D04A5610022E9
:1053F0000121FFF785FF86F3108802B070BD002DF4
:1054000095FAA5F0B0FA80F008BF4FF0FF3000EB3E
:105410000310E6E7007D000838B50446437F406985
:10542000D4F818C0056904EBD30003F0070201218A
:10543000914090F8282015EA0C0F1ABF0A43D2B207
:105440008A4380F82820A27F0133DBB29A4206D932
:10545000A268616A63770A44A260012038BD237F95
:105460009A060ED4D4E9032191610A4A03F030036D
:1054700043F00903002023771072074B01221A70B2
:1054800038BD04F10C0393E803000122FFF798FFF5
:10549000237FEAE728000020B8000020D0E9053289
:1054A0001B69134010B504460ED0037F43F004037C
:1054B0000377637F5A1C3F2B62770FD8A368626A19
:1054C00013440120A36010BD027F5107F1D5124A99
:1054D0004377BDE810404260FFF79EBF237F002264
:1054E000A2779A0613D504F10C0393E80300012276
:1054F000FFF766FF237F094A03F0300343F00903F7
:10550000002023771072064B01221A7010BDD4E9D7
:1055100003219161EFE700BF195400082800002023
:10552000B800002070B5837F044623B3027F930642
:105530000AD4A368606A234A002103EB80036177E1
:10554000C4E90123012070BDD0E905561E4902F0CF
:105550001002002351F8040F854227D00133082B95
:10556000F8D10020EFF3108572B60021FFF7C8FED6
:1055700085F31088DDE7037F9A060ED4D0E9032176
:105580009161124A03F0300343F0090300202377AE
:1055900010720F4B01221A7070BD00F10C0393E8DA
:1055A00003000122FFF70CFF237FEAE7002E96FAA3
:1055B000A6F0B0FA80F008BF4FF0FF3000EB031008
:1055C000D0E700BF9D540008007D0008280000209F
:1055D000B80000202DE9F04F082683B08319834CD2
:1055E000DFF80C92DFF80C82019383460D462B0600
:1055F00000F1AA80019B002293E80300FFF7E0FE80
:10560000DBF82430626809FB03F36D00A8FB031389
:10561000EDB202EB934263689A42FCD8764FDBE925
:10562000040C3A46002352F8041F884200F0A2807E
:105630000133082BF7D10020EFF3108A72B6012254
:105640000021FFF75DFE8AF31088DBF824306268E2
:1056500009FB03F3A8FB031302EB934263689A422E
:10566000FCD89BE803000022FFF7AAFE013EBED152
:10567000DBE90604604A334652F8041F814200F019
:1056800090800133082BF7D10020EFF3108472B61D
:1056900001220021FFF734FE84F310885448DBF820
:1056A0002430524900FB03F352484A68A0FB03032D
:1056B00002EB93424B689A42FCD8DBE904044E4A61
:1056C000002352F8041F814200F081800133082B2F
:1056D000F7D10020EFF3108472B601220021FFF70A
:1056E0000FFE84F31088DBE906231469404A3F4922
:1056F0001C40DBF8243002FB03F33E4AA2FB0323E9
:105700004A6802EB93424B689A42FCD89BE803003C
:105710000022FFF755FEDBE90610002357F8042F9F
:105720008A4249D00133082BF8D1EFF3108572B6C5
:10573000012200213046FFF7E3FD85F31088002C9D
:1057400050D103B0BDE8F08FDBE906072A4A0023F9
:1057500052F8041F814219D00133082BF8D10020E0
:10576000EFF3108772B601220021FFF7C9FD87F31E
:10577000108845E7BCF1000F9CFAACF0B0FA80F05D
:1057800008BF4FF0FF3000EB031055E7002F97FAEA
:10579000A7F0B0FA80F008BF4FF0FF3000EB031025
:1057A000DEE7002C94FAA4F0B0FA80F008BF4FF0C6
:1057B000FF3000EB031068E7002890FAA0F0B0FA81
:1057C00080F008BF4FF0FF3000EB0316ADE7002C70
:1057D00094FAA4F0B0FA80F008BF4FF0FF3000EB6D
:1057E000031077E72520FAF771FD00BF001000E0F5
:1057F0002048010083DE1B43007D0008F8B5044605
:105800003E4D3F48636A42680E463E4905FB03F33E
:10581000A1FB031302EB934243689A42FCD83A4D32
:10582000D4E906072A46002352F8041F81424ED0CD
:105830000133082BF8D10020EFF3108772B6012254
:105840000021FFF75DFD87F31088D4E904100023E1
:1058500055F8042F8A4245D00133082BF8D1002097
:10586000EFF3108572B601220021FFF749FD85F3A1
:1058700010882249636A224D01FB03F321496A68BB
:10588000A1FB031302EB93426B689A42FCD804F12C
:10589000080393E803000022FFF792FD1749636AAB
:1058A0006A6801FB03F31749A1FB0313144902EBD8
:1058B00093424B689A42FCD894E803000022FFF719
:1058C0007FFD31462046BDE8F840FFF783BE002F3C
:1058D00097FAA7F0B0FA80F008BF4FF0FF3000EB66
:1058E0000310A9E7002890FAA0F0B0FA80F008BFF2
:1058F0004FF0FF3000EB0310B2E700BF204801007B
:10590000001000E083DE1B43007D000870B500F14D
:1059100008030546002293E80300FFF751FD2E4CD3
:105920002E496B6A2E484A6804FB03F3A0FB03036D
:1059300002EB93424B689A42FCD82A4CD5E9040604
:105940002246002352F8041F81422FD00133082B36
:10595000F8D10020EFF3108672B601220021FFF784
:10596000CFFC86F310881C486B6A1C4900FB03F3CC
:105970001B484A68A0FB030302EB93424B689A4220
:10598000FCD8D5E90610002354F8042F914218D012
:105990000133082BF8D10020EFF3108472B60122F6
:1059A0000021FFF7ADFC84F3108870BD002E96FA3D
:1059B000A6F0B0FA80F008BF4FF0FF3000EB031004
:1059C000C8E7002890FAA0F0B0FA80F008BF4FF0C6
:1059D000FF3000EB0310DFE720480100001000E07B
:1059E00083DE1B43007D00082DE9F04F83B00E4697
:1059F00090F820101F460C9B0093054641F00108CB
:105A0000002E40F01F814146284607F1FF3BFFF77B
:105A1000F5FE5FFA8BFB002F00F0CC808F4CDFF897
:105A20004092DFF84082D5E906064246002352F84C
:105A3000041F884200F0E3800133082BF7D10020D7
:105A4000EFF3108672B601220021FFF759FC86F3AE
:105A50001088DFF814A2CDF804B0082700266B6A7E
:105A600062680AFB03F3A9FB031302EB934263682A
:105A70009A42FCD8D5E9040C4246002352F8041F90
:105A8000814200F09D800133082BF7D10020EFF315
:105A9000108B72B601220021FFF732FC8BF31088C5
:105AA0006B6A62680AFB03F3A9FB031302EB9342E0
:105AB00063689A42FCD8D5E90623126976001A4237
:105AC00095E80300F6B24FF0000218BF46F0010659
:105AD000FFF776FC013FC2D1D5E9060CDDF804B032
