:020000040800F2
:100000000000012095010008B1980008B19800088F
:10001000B1980008B1980008B198000800000000ED
:10002000000000000000000000000000B19800087F
:10003000B198000800000000B198000813DB000828
:10004000B1980008B1980008B1980008B19800086C
:10005000B1980008B1980008A1DB0008A7DB0008F0
:10006000ADDB0008B3DB0008B9DB0008B19800087D
:10007000B1980008B1980008B1980008B19800083C
:10008000B1980008B1980008B1980008000000007D
:10009000000000000000000000000000BFDB0008BE
:1000A00031930008A992000845930008CD920008FA
:1000B000E1920008F592000809930008B198000841
:1000C000B1980008B1980008B1980008B1980008EC
:1000D000B198000899E40008B1E4000800000000AD
:1000E000D5DB0008B198000895AA000800000000C0
:1000F000000000000000000000000000B1980008AF
:1001000000000000B19800081D930008B198000895
:1001100000000000000000000000000000000000DF
:10012000B1980008B1980008B1980008B19800088B
:10013000B19800080000000000000000000000006E
:1001400000000000000000000000000089AA000874
:10015000B1980008B1980008B1980008C9E40008F7
:10016000B1980008B19800080000000000000000ED
:10017000000000000000000000000000000000007F
:1001800000000000B198000800000000000000001E
:04019000B19800081A
:1001940017481849026800608A421BD0DFF858D01B
:1001A400002103E0154B5B58435004311448154BB0
:1001B40042189A42F6D3144A02E0002342F8043B60
:1001C400124B9A42F9D30DF0C5FE31F06FF809F0E5
:1001D4003CFB70470E484FF4804101600D484FF0DE
:1001E400010101600C48D0F800D0406800470000CD
:1001F400F0FF0020EFBEADDE0000012050BA03087E
:10020400000000204C0400205004002098690020C5
:0C02140044380240003801400000FF1F89
:1080000081F0004102E000BF83F0004330B54FEA49
:1080100041044FEA430594EA050F08BF90EA020FB6
:108020001FBF54EA000C55EA020C7FEA645C7FEA49
:10803000655C00F0E2804FEA5454D4EB5555B8BF6C
:108040006D420CDD2C4480EA020281EA030382EADD
:10805000000083EA010180EA020281EA0303362D6F
:1080600088BF30BD11F0004F4FEA01314FF4801C42
:108070004CEA113102D0404261EB410113F0004F54
:108080004FEA03334CEA133302D0524263EB43030B
:1080900094EA050F00F0A780A4F10104D5F1200EA9
:1080A0000DDB02FA0EFC22FA05F2801841F1000104
:1080B00003FA0EF2801843FA05F359410EE0A5F1D8
:1080C00020050EF1200E012A03FA0EFC28BF4CF009
:1080D000020C43FA05F3C01851EBE37101F00045BF
:1080E00007D54FF0000EDCF1000C7EEB00006EEBCC
:1080F0000101B1F5801F1BD3B1F5001F0CD3490856
:108100005FEA30004FEA3C0C04F101044FEA4452AC
:1081100012F5800F80F09A80BCF1004F08BF5FEA33
:10812000500C50F1000041EB045141EA050130BD13
:108130005FEA4C0C404141EB0101013C28BFB1F525
:10814000801FE9D291F0000F04BF01460020B1FA70
:1081500081F308BF2033A3F10B03B3F120020CDA43
:108160000C3208DD02F1140CC2F10C0201FA0CF021
:1081700021FA02F10CE002F11402D8BFC2F1200C86
:1081800001FA02F120FA0CFCDCBF41EA0C0190403C
:10819000E41AA2BF01EB0451294330BD6FEA040485
:1081A0001F3C1CDA0C340EDC04F11404C4F1200270
:1081B00020FA04F001FA02F340EA030021FA04F382
:1081C00045EA030130BDC4F10C04C4F1200220FAD9
:1081D00002F001FA04F340EA0300294630BD21FA17
:1081E00004F0294630BD94F0000F83F4801306BFDD
:1081F00081F480110134013D4EE77FEA645C18BFD1
:108200007FEA655C29D094EA050F08BF90EA020F67
:1082100005D054EA000C04BF1946104630BD91EA5F
:10822000030F1EBF0021002030BD5FEA545C05D162
:108230004000494128BF41F0004130BD14F58004A1
:108240003CBF01F5801130BD01F0004545F0FE4115
:1082500041F470014FF0000030BD7FEA645C1ABF4A
:10826000194610467FEA655C1CBF0B46024650EA81
:10827000013406BF52EA033591EA030F41F40021AD
:1082800030BD00BF90F0000F04BF0021704730B533
:108290004FF4806404F132044FF000054FF0000108
:1082A00050E700BF90F0000F04BF0021704730B5C9
:1082B0004FF4806404F1320410F0004548BF40429E
:1082C0004FF000013EE700BF42004FEAE2014FEAF3
:1082D00031014FEA02701FBF12F07F4393F07F4FCE
:1082E00081F06051704732F07F4208BF704793F0D1
:1082F0007F4F04BF41F40021704730B54FF46074E4
:1083000001F0004521F000411CE700BF50EA0102E6
:1083100008BF704730B54FF000050AE050EA01028F
:1083200008BF704730B511F0004502D5404261EBFF
:1083300041014FF4806404F132045FEA915C3FF440
:10834000D8AE4FF003025FEADC0C18BF03325FEADD
:10835000DC0C18BF033202EBDC02C2F1200300FA8E
:1083600003FC20FA02F001FA03FE40EA0E0021FAB3
:1083700002F11444BDE600BF70B54FF0FF0C4CF4A1
:10838000E06C1CEA11541DBF1CEA135594EA0C0F53
:1083900095EA0C0F00F0DEF82C4481EA030621EA8E
:1083A0004C5123EA4C5350EA013518BF52EA0335C9
:1083B00041F4801143F4801338D0A0FB02CE4FF07B
:1083C0000005E1FB02E506F00042E0FB03E54FF0AB
:1083D0000006E1FB03569CF0000F18BF4EF0010EA3
:1083E000A4F1FF04B6F5007F64F5407404D25FEA9F
:1083F0004E0E6D4146EB060642EAC62141EA555152
:108400004FEAC52040EA5E504FEACE2EB4F1FD0C93
:1084100088BFBCF5E06F1ED8BEF1004F08BF5FEA11
:10842000500E50F1000041EB045170BD06F00046C3
:1084300046EA010140EA020081EA0301B4EB5C0470
:10844000C2BFD4EB0C0541EA045170BD41F4801168
:108450004FF0000E013C00F3AB8014F1360FDEBF8D
:10846000002001F0004170BDC4F10004203C35DA69
:108470000C341BDC04F11404C4F1200500FA05F3EC
:1084800020FA04F001FA05F240EA020001F000428D
:1084900021F0004110EBD37021FA04F642EB060103
:1084A0005EEA430E08BF20EAD37070BDC4F10C042D
:1084B000C4F1200500FA04F320FA05F001FA04F2F1
:1084C00040EA020001F0004110EBD37041F10001DD
:1084D0005EEA430E08BF20EAD37070BDC4F12005E8
:1084E00000FA05F24EEA020E20FA04F301FA05F250
:1084F00043EA020321FA04F001F0004121FA04F2F8
:1085000020EA020000EBD3705EEA430E08BF20EAC7
:10851000D37070BD94F0000F0FD101F00046400001
:1085200041EB010111F4801F08BF013CF7D041EA83
:10853000060195F0000F18BF704703F00046520087
:1085400043EB030313F4801F08BF013DF7D043EA58
:108550000603704794EA0C0F0CEA135518BF95EA0E
:108560000C0F0CD050EA410618BF52EA4306D1D195
:1085700081EA030101F000414FF0000070BD50EAB4
:10858000410606BF1046194652EA430619D094EA3E
:108590000C0F02D150EA013613D195EA0C0F05D128
:1085A00052EA03361CBF104619460AD181EA03017C
:1085B00001F0004141F0FE4141F470014FF0000034
:1085C00070BD41F0FE4141F4780170BD70B54FF0CF
:1085D000FF0C4CF4E06C1CEA11541DBF1CEA13554F
:1085E00094EA0C0F95EA0C0F00F0A7F8A4EB050431
:1085F00081EA030E52EA03354FEA013100F0888028
:108600004FEA03334FF0805545EA131343EA1263F0
:108610004FEA022245EA111545EA10654FEA0026A5
:108620000EF000419D4208BF964244F1FD0404F55E
:10863000407402D25B084FEA3202B61A65EB0305BA
:108640005B084FEA32024FF480104FF4002CB6EB77
:10865000020E75EB030E22BFB61A754640EA0C00F7
:108660005B084FEA3202B6EB020E75EB030E22BF37
:10867000B61A754640EA5C005B084FEA3202B6EB78
:10868000020E75EB030E22BFB61A754640EA9C0037
:108690005B084FEA3202B6EB020E75EB030E22BF07
:1086A000B61A754640EADC0055EA060E18D04FEAC5
:1086B000051545EA16754FEA06164FEAC30343EA65
:1086C00052734FEAC2025FEA1C1CC0D111F4801F32
:1086D0000BD141EA00014FF000004FF0004CB6E72B
:1086E00011F4801F04BF01430020B4F1FD0C88BFCA
:1086F000BCF5E06F3FF6AFAEB5EB030C04BFB6EBD5
:10870000020C5FEA500C50F1000041EB045170BDC7
:108710000EF0004E4EEA113114EB5C04C2BFD4EBF4
:108720000C0541EA045170BD41F480114FF0000E78
:10873000013C90E645EA060E8DE60CEA135594EAF4
:108740000C0F08BF95EA0C0F3FF43BAF94EA0C0FF7
:108750000AD150EA01347FF434AF95EA0C0F7FF46C
:1087600025AF104619462CE795EA0C0F06D152EAC0
:1087700003353FF4FDAE1046194622E750EA4106A4
:1087800018BF52EA43067FF4C5AE50EA41047FF4B5
:108790000DAF52EA43057FF4EBAE12E74FF0FF3C1A
:1087A00006E000BF4FF0010C02E000BF4FF0010CEB
:1087B0004DF804CD4FEA410C7FEA6C5C4FEA430C64
:1087C00018BF7FEA6C5C1BD001B050EA410C0CBFB3
:1087D00052EA430C91EA030F02BF90EA020F002015
:1087E000704710F1000F91EA030F58BF994208BF7C
:1087F00090422CBFD8176FEAE37040F00100704739
:108800004FEA410C7FEA6C5C02D150EA013C07D18F
:108810004FEA430C7FEA6C5CD6D152EA033CD3D0DA
:108820005DF8040B704700BF8446104662468C46D4
:108830001946634600E000BF01B5FFF7B7FF002807
:1088400048BF10F1000F01BD4DF808EDFFF7F4FF30
:108850000CBF012000205DF808FB00BF4DF808EDBB
:10886000FFF7EAFF34BF012000205DF808FB00BFDE
:108870004DF808EDFFF7E0FF94BF012000205DF800
:1088800008FB00BF4DF808EDFFF7CEFF94BF0120B5
:1088900000205DF808FB00BF4DF808EDFFF7C4FFAE
:1088A00034BF012000205DF808FB00BF4FEA410CF7
:1088B0007FEA6C5C02D150EA013C0AD14FEA430CDA
:1088C0007FEA6C5C02D152EA033C02D14FF0000017
:1088D00070474FF0010070474FEA410212F5001255
:1088E00015D211D56FF47873B3EB625212D94FEAF7
:1088F000C12343F0004343EA505311F0004F23FAE1
:1089000002F018BF404270474FF00000704750EA35
:10891000013005D111F0004008BF6FF000407047F2
:108920004FF00000704700BF4A0011D212F500124C
:1089300011D20DD56FF47873B3EB62520ED44FEAB7
:10894000C12343F0004343EA505323FA02F0704737
:108950004FF00000704750EA013002D14FF0FF3075
:1089600070474FF0000070474FEA4102B2F1E04318
:1089700024BFB3F5001CDCF1FE5C0DD901F0004C06
:108980004FEAC0024CEA5070B2F1004F40EB830056
:1089900008BF20F00100704711F0804F21D113F182
:1089A0003872BCBF01F00040704741F480114FEABB
:1089B0005252C2F11802C2F1200C10FA0CF320FA44
:1089C00002F018BF40F001004FEAC1234FEAD32361
:1089D00003FA0CFC40EA0C0023FA02F34FEA4303CB
:1089E000CCE77FEA625307D150EA01331EBF4FF054
:1089F000FE4040F44000704701F0004040F0FE406F
:108A000040F40000704700BF53B94AB9002908BFBD
:108A100000281CBF4FF0FF314FF0FF3000F00CB8C2
:108A2000ADF1080C6DE904CE26F0BCFEDDF804E0E3
:108A3000DDE9022304B07047704700BF034613F816
:108A4000012B002AFBD1181A0138704700000000E2
:108A500001F0FF01102A2BDB10F0070F08D010F8EF
:108A6000013B013A8B422DD010F0070F42B3F6D1F3
:108A7000F0B441EA012141EA014122F007047FF00C
:108A800000070023F0E80256083C85EA010586EA63
:108A9000010685FA47F5A3FA87F586FA47F6A5FA9F
:108AA00087F68EB9EED1F0BC01F0FF0102F00702AB
:108AB00032B110F8013B013A83EA010313B1F8D156
:108AC0000020704701387047002D06BF3546033837
:108AD000073815F0010F07D1013015F4807F02BF70
:108AE000013015F4C03F0130F0BC0138704700BFC1
:108AF00010B5054C237833B9044B13B10448AFF3D8
:108B000000800123237010BD5004002000000000ED
:108B1000BC3D030808B5034B1BB103490348AFF341
:108B2000008008BD0000000054040020BC3D030884
:108B300010B594B0204B002101911A6C42F0805284
:108B40001A641B6C1D4A03F080530193019B029130
:108B5000136823F4404343F400431360136803F4A1
:108B600040430293029B01224FF48033CDE9082356
:108B700002244FF48003CDE90E4308214FF4A8737B
:108B80000420CDE910130723CDE9120308A803F050
:108B90003DFB00B1FEE70F23CDE903344FF48053D2
:108BA000CDE906300590214603A803F005FD00B18C
:108BB000FEE714B010BD00BF003802400070004056
:108BC000074B084A1A60BFF34F8F0749074BCA6823
:108BD00002F4E0621343CB60BFF34F8F00BFFDE7A9
:108BE000F0FF0020EFBEADDE00ED00E00400FA056E
:108BF000B0F86230013303F03F03A0F86230B0F800
:108C00006230B0F85E009BB298424FF0FF3018BF60
:108C100000207047B0F83431B0F83001181A00F075
:108C20007F007047B0F83431B0F830219BB29342E6
:108C30001ABFD0F82831985C4FF0FF307047000021
:108C4000012370B50374B0F92231013304460E4696
:108C500000F1D40508D190F838312BB1002380F809
:108C60003831284605F0A4FBB4F832114B1C03F050
:108C70003F03B4F8362192B29342FAD0D4F82C21B3
:108C800028465654A4F8323105F05CFB18B9034964
:108C9000284605F069FB012070BD00BFF18B00087C
:108CA000037C33B1B0F83221B0F836319BB29A422E
:108CB000FAD1704700F11103914208BF4FF0FF3124
:108CC000A0F82021C0F8283100F191020023A0F87B
:108CD0003431C0E94B23A0F82211A0F83631704797
:108CE00070B54FF47A7316460022C0E90123164B83
:108CF00003604FF6FF73A0F82231144B98420446EC
:108D00000D4614D1124B9A8AA0F822215B8AA0F852
:108D10002031012E04BF4FF6FF73A4F82231204604
:108D2000B4F92021B4F92211FFF7C4FF70BD09493D
:108D3000284605F0ADF80849A4F82201284605F0B8
:108D4000A7F8A4F82001E4E7F44303086C0400202A
:108D50006843030890420308D8420308B0F922315F
:108D6000013310B504460ED103685B69984794F847
:108D7000383143B9012384F8383104F1D400BDE817
:108D8000104005F025BB10BD10B50446FFF7E6FF07
:108D9000B4F83421B4F8303192B29A421FBFD4F8FB
:108DA0002821D05C013303F07F0314BFA4F83031D5
:108DB0004FF0FF3010BD0000024903480022FFF7CA
:108DC0008FBF00BF001001406C040020836810B505
:108DD00004462BB10322014698470023C4E902331D
:108DE000204610BD836810B5044613B10322014626
:108DF0009847204610BD4B1E032B9ABF88000438AD
:108E00004FF0FF30704700000139435C2BB102295D
:108E100007D8054B33F811007047032901D8034BDD
:108E2000F8E74FF0FF3070477244030878440308B6
:108E30002DE9F04104460F46FFF7DDFF431C0546D0
:108E400004D13F4840F24D1105F042F87E1E032E3A
:108E500028D83C4B13F8068039462046FFF7D4FF4C
:108E6000013004D1364840F2571105F031F804EBD7
:108E700007175837BB683BB123696FEA08021A61CC
:108E8000DA6842EA0802DA6004EB46039B88013B99
:108E90000B2B4BD8DFE803F01B1B1B1B0E0E1B1B01
:108EA0004C4C4C2826484FF4A9714FF0FF3805F080
:108EB0000FF8D1E7A35D04F1100029461BB1BDE80E
:108EC000F04103F047BEBDE8F04103F00BBEA35DE7
:108ED00004F1100029461BB1BDE8F04103F024BEA7
:108EE000BDE8F04103F0E2BD294604F1100003F0B3
:108EF000FBFD032E98BF144B256994BF9A574FF082
:108F0000FF3211462046FFF77FFF2B6A1843BB68EC
:108F100028625BB1013A032A9ABF0A4B9A5C4FF070
:108F2000FF32D3432B61EB681343EB60BDE8F08164
:108F3000294604F11000BDE8F04103F0D5BD00BFA3
:108F4000144403088044030884440308036E10B5E6
:108F5000044653B150F8103F6FF001021A61DA680D
:108F600042F00102DA6003F063FC20460121FFF7C2
:108F70005FFF20460221FFF75BFF20460321FFF73A
:108F800057FF20460421BDE81040FFF751BF036999
:108F900001399962704703691A6819B142F0800279
:108FA0001A60704722F08002FAE7F8B504460E46D0
:108FB0001546006905F0DEF82A46314602F00EFA41
:108FC000206905F015F90746206905F0D3F88742B6
:108FD00006D0206905F00CF92A46314602F0FEF968
:108FE000C4E91465F8BD0269D36823F00103D360B6
:108FF0005830FFF7EBBE006E003818BF01207047F5
:109000000121103003F026BC164A904203461BD0C3
:10901000B0F1804F1AD0A2F57C42904218D002F5F0
:109020008062904216D002F58062904214D04FF6D2
:10903000FF700D4A934211D00C4A934210D00C4A53
:10904000934208BF072070470020F2E70120F0E7B5
:109050000220F1E70320F2E7042070470520704763
:1090600006207047000001400040014000440140DC
:1090700000480140014670B5044651F8100FFFF753
:10908000C3FF0546084605F01FF8094A002342F8C9
:10909000253004F15806E36004F1A805B54204D078
:1090A000103D2846FFF79EFEF8E7204670BD00BF42
:1090B000AC050020F8B5002303660367C0F88030D4
:1090C000C0F89030C0F8A030044608460D46FFF7BF
:1090D0009BFF4FF6FF739842064603D11E482F218F
:1090E00004F0F6FE1D4A256104F10C0342F8263017
:1090F00000230D2204F11006C4E90C33C4E90E3339
:10910000C4E91033C4E9142384F82C30A36484F830
:109110004C3084F84D30E460304604F045FF04F1F3
:10912000580504F1A80728461035FFF74FFEBD4249
:10913000F9D100234FF6FF72C4E90033C4E90632C7
:10914000C4E90833A36063618023A362304603F05F
:1091500085FC2046F8BD00BF14440308AC05002080
:1091600030B58DB014220446002102A828F00AF977
:10917000002501A902A8019503F0E0FA206905F095
:109180009FF8012808D0022821D01B4840F2FF4157
:1091900004F09EFE2C4603E0059D03F0AFFA044662
:1091A0001422002107A828F0EDF807A803F0E4FA3C
:1091B0009DF82C30012B10D125F48065B5F5C05FEA
:1091C00009D003F095FA044620460DB030BD069D47
:1091D00003F0A4FAE3E7A400F6E7B5F5C05F05D015
:1091E00006D825F48065B5F5805FEDD16400EBE726
:1091F000B5F5E05FF9E700BF14440308012A38B56C
:1092000005460C4607D0022A12D004B1013C2B6956
:10921000DC62EC6138BDFFF7A3FF0849B0FBF1F059
:1092200044432B69210C99620131B4FBF1F4ECE762
:10923000FFF796FFB0FBF4F4F3E700BF40420F00E6
:10924000036970B55C6A9D6A012905F1010503D0C7
:1092500002291CD0204670BDFFF782FF064604FBA2
:1092600005F0FFF70FF80EA3D3E90023FFF784F80A
:10927000044630460D46FFF705F802460B462046E9
:109280002946FFF7A3F9FFF74FFB0446E2E7FFF794
:1092900067FF6C43B0FBF4F4DCE700BFAFF3008082
:1092A0000000000080842E4110B5074C206810B1EA
:1092B000043003F0E3FAA06920B1BDE810400430A7
:1092C00003F0DCBA10BD00BFAC050020034B1868EA
:1092D00010B1043003F0D2BA704700BFAC050020D3
:1092E000034B586810B1043003F0C8BA704700BF90
:1092F000AC050020034B986810B1043003F0BEBAEF
:10930000704700BFAC050020034BD86810B1043093
:1093100003F0B4BA704700BFAC050020034B1869D6
:1093200010B1043003F0AABA704700BFAC050020AA
:10933000034B586910B1043003F0A0BA704700BF66
:10934000AC050020034BD86910B1043003F096BA85
:10935000704700BFAC05002038B5002383608B68E0
:1093600004460D462BB102229847EB68E360AB68D8
:10937000A360204638BD30B587B002AD044628460C
:10938000FFF7EAFF95E803006B4683E8030094E8E3
:10939000030085E8030093E80300049BA268A36030
:1093A000059B049284E80300E268E3602846059286
:1093B000FFF718FD204607B030BD38B504460D460E
:1093C000236E583013B1FFF7D6FF38BDFFF7D3FF38
:1093D000AB68002BF9D023696FF001021A61DA68DB
:1093E00042F00102DA60F0E7826810B50AB926F0AF
:1093F0003BFBBDE81040C3681847000010B50446A9
:1094000020B9074840F2264104F062FD204604F0EE
:10941000C9FD0068036E13B15830FFF7E5FF10BDBA
:1094200014440308FFF7EABF38B5054620B91148D0
:1094300040F2394104F04CFD2B7F013B072B11D842
:10944000DFE803F015041011101010130224284651
:1094500004F0A8FD240100685834204483680BB14F
:10946000FFF7C2FF38BD0324F1E70424EFE701242E
:10947000EDE700BF14440308FFF7D6BFFFF7D4BFE2
:10948000F8B505460E4617460024BC4207D02B68A7
:10949000315D1B682846984708B10134F5E720463E
:1094A000F8BD03681B68184710B5044601F0EAFCD4
:1094B000E06023682046DB689847002808DA01F05E
:1094C000E1FCE368C01AA3689842F2D34FF0FF3082
:1094D00010BDF8B506460D4617460024BC4207D01D
:1094E0003046FFF7E1FF031E02DB2B550134F5E7A1
:1094F0002046F8BD2DE9F0410746884616461D4630
:1095000073B100243846FFF7CFFF031E05DB434548
:1095100003D033550134A542F4D12046BDE8F08193
:109520001C46FAE703681847012A03D0022A03D031
:10953000002070470160FBE70B680360F8E707B5A0
:1095400003688DF807105B6801220DF10701984749
:1095500003B05DF804FB0000014800F0B0B900BFA3
:10956000126100202DE9F041DFF83C800E461446E0
:109570001746AFB100F0A0FD90B1404600F09FF952
:10958000B84228BF384605460028F2D00246314688
:10959000404600F0B5F97F1B2E4400F0A9FDE8E736
:1095A000E01BBDE8F08100BF12610020014800F01F
:1095B0004CBA00BF4C60002010B5044800F06DFAB2
:1095C000044600F0CBFD204610BD00BF4C600020DB
:1095D0002DE9F84306460F46154694B201F052FCB9
:1095E000DFF83490F06022463946484600F0B2FA7F
:1095F0008046A4EB0804A4B200F0B0FD47443CB19F
:1096000001F040FCF368C01AB3689842EBD32D1BFD
:109610002846BDE8F88300BF4C6000202DE9F04FDC
:1096200085B00646884617461C469DB201F02AFCC6
:10963000DFF84CA0F0600DF10E093A462B4641468A
:10964000CDF80090504600F0CDFA834600F086FD3C
:10965000BDF80E20AD1AADB21744BBF1000F04D017
:10966000641B204605B0BDE8F08F002DF9D001F055
:1096700009FCF368C01AB3689842DED3F0E700BF74
:109680004C600020014800F03FBA00BF4C60002051
:1096900010B5034C204600F022F90028FADC10BD7A
:1096A0001261002000F0E4BC044B10B51C680A20D5
:1096B00001F0ECFB631E5842584110BDE00500204C
:1096C000044B4FF47A720021C3E90112024A1A6076
:1096D000704700BFCC0500209044030808B5044B38
:1096E0002BB10448FFF796FA08B1AFF3008008BD2C
:1096F000000000006C0400202DE9F04F57EC106BC7
:10970000A5B004468846154610EE100A0022002334
:109710003946FFF7A3F800286DD007F100431F4634
:109720004FF0010A3F494FF000090020C84564DCB2
:1097300002460B4630463946FEF768FC0F460646A1
:10974000FFF7F2F88146FEF79DFD02460B463046D4
:109750003946FEF759FC0F46334906464FF0000BD9
:109760000020D84550DC32463B46FEF705FEFFF7A9
:10977000B3F8434600904A46BAF1000F4BD02B494C
:109780000026284627F004FF31467D2204A80396D0
:1097900027F0F8FDB4422846BCBF64420126FFF71B
:1097A0004DF9A04223D28022202103A827F0EAFD10
:1097B0002846FFF743F924AB241A1C44002304F87D
:1097C000843C56BB2846FFF739F9013027F094FD59
:1097D0002946044627F034FF03A9284627F030FF26
:1097E0002146284627F010FF204627F08DFD284609
:1097F00025B0BDE8F08F824694E70D4B0022FEF7BE
:10980000E5FE09F1010991E7094B0022FEF7B4FDDD
:109810000BF1010BA5E70749B2E703A9284627F09A
:10982000F3FEE4E70000E03F0000F03FB44403082B
:1098300000002440B544030804F090B9704708B50F
:10984000032001F0B9FDBDE80840FFF7F5BF08B5FA
:10985000AFF3008005F07AFC05F0F4FBFFF73EFF64
:10986000FAE727F049BD27F04FBD00000F2803D9C4
:10987000412808D8034601E000F132030B4A32F9CF
:1098800013305A1C09D1452809D046280AD043284C
:1098900040F2011318BF4FF0FF33184670474FF4E2
:1098A0008173FAE740F20313F7E700BF6843030848
:1098B000FEE70023A0F88230A0F880307047B0F8AF
:1098C0008230B0F880009BB280B2181A7F304342D9
:1098D00003F07F0300F07F0058BF58427047B0F894
:1098E0008030B0F882009BB282B203F18000801A0F
:1098F000434203F07F0300F07F0058BF5842704797
:10990000F8B5B0F88050ADB2C5F180059542044677
:109910000F46B0F8800016460CD914FA80F027F0F4
:1099200009FDB4F8803016FA83F202F07F02A4F841
:109930008020F8BD2A4614FA80F027F0FBFC721B49
:1099400079192046EBE7B0F88020B0F8823092B267
:109950009BB29A422BBFB0F88030B0F88230B0F89A
:109960008220C3F1800328BF9B1A9BB20B80A0F812
:109970008430B0F8823010FA83F07047B0F882205B
:10998000B0F88430134403F07F03A0F882307047AE
:109990000023A0F8C230A0F8C030C023A0F8C43023
:1099A0007047B0F8C23082B09BB2ADF80630B0F864
:1099B000C020BDF8063092B29BB29A42B0F8C030D7
:1099C0009BB21FD37F2B08D9B0F8C0309BB2802B3D
:1099D00009D1BDF806309BB22BB1B0F8C03010FAF7
:1099E00083F002B07047BDF806309BB2402B4FF0B9
:1099F00000030DD9B0F8C02092B2A0F8C420A0F89E
:109A0000C030EAE7BDF80620403392B29342E4D377
:109A10000020E6E7B0F8C03011FA83F189B2A0F86F
:109A2000C010B0F8C020B0F8C43092B29BB29A42D5
:109A300024BFC023A0F8C430B0F8C0309BB2BF2B05
:109A400084BF0023A0F8C0307047B0F8C03082B0A7
:109A50009BB2ADF80430B0F8C4309BB2ADF806301C
:109A6000B0F8C220BDF8043092B29BB29A4208D836
:109A7000BDF80430B0F8C2009BB280B2181A02B030
:109A80007047BDF80630BDF80410B0F8C22089B2A6
:109A900092B211FA83F0801AF1E7B0F8C03082B0C8
:109AA0009BB2ADF80430B0F8C4309BB2ADF80630CC
:109AB000B0F8C220BDF8063092B29BB29A4204BF01
:109AC0000023A0F8C230B0F8C220BDF8043092B232
:109AD0009BB29A4215D0B0F8C2309BB25A1C92B2D7
:109AE000A0F8C220B0F8C210BDF80620C35C92B244
:109AF00089B2914224BF0022A0F8C220184602B0C9
:109B000070474FF0FF30FAE7B0F8C03082B09BB238
:109B1000ADF80430B0F8C4309BB2ADF80630B0F800
:109B2000C220BDF8063092B29BB29A4224BF0023F5
:109B3000A0F8C230B0F8C220BDF8043092B29BB297
:109B40009A421BBFB0F8C2309BB24FF0FF30C05CEE
:109B500002B0704737B504460846B4F8C0309BB22F
:109B6000ADF80430B4F8C4309BB2ADF80630B4F8A8
:109B7000C210BDF8063089B29BB2994224BF0023BF
:109B8000A4F8C230B4F8C210BDF8043089B29BB258
:109B9000994294BFBDF80430BDF80630B4F8C25005
:109BA000B4F8C2105B1B9DB2954228BF15462A46E9
:109BB00014FA81F127F0BEFBB4F8C23015FA83F332
:109BC0009BB2A4F8C230B4F8C220BDF8063092B2FD
:109BD0009BB29A4228BF0023284628BFA4F8C2306F
:109BE00003B030BDF7B5B0F8C040089DA4B2ADF8E1
:109BF0000440B0F8C440A4B2ADF80640B0F8C2606A
:109C0000BDF80640B6B2A4B2A64224BF0024A0F814
:109C1000C240B0F8C260BDF80440B6B2A4B2A642D9
:109C200094BFBDF80440BDF80640B0F8C260B0F87B
:109C3000C270A41BA4B2A34228BF234610FA87F720
:109C40000024A6B2B34215D82B80B0F8C22013FA74
:109C500082F39BB2A0F8C230B0F8C220BDF8063043
:109C600092B29BB29A424FF0000328BFA0F8C230D4
:109C7000184618E017F804C08C4516D1B0F8C23069
:109C80009BB2013333449BB2A0F8C230B0F8C2207B
:109C9000BDF8063092B29BB29A4224BF0023A0F8CE
:109CA000C2302E80012003B0F0BD02F804C00134A0
:109CB000C7E7D0F8BC3210B56BB1D0F8B84294F811
:109CC0000002FF2807D09B6894F80122214698479C
:109CD000FF2384F80032002010BD000043230380DE
:109CE0000048704738000020432303800048704735
:109CF0007C0000204323038000487047CC000020F4
:109D00000A23038000487047C000002038B504468D
:109D1000D0F8B85200F068FFD4F8B832C5F80C0299
:109D20004BB1D4F8BC32D5F80402DB6805F50371F9
:109D30009847002038BD0220FCE7D0F8B822F8B5DB
:109D400005460AB3142707FB0107FB6993B1D0F856
:109D5000C0424FF01C0C0CFB0146766CB3FBF6F4D2
:109D600006FB143434B9FC612346224600F02EFF72
:109D70002046F8BDD5F8BC3218690024C2F8144258
:109D80000028F6D08047F3E70220F2E72DE9F743F9
:109D90000A78D0F8B8724FF0000812F06004054657
:109DA0000E468DF80580ADF8068028D0202C42D1D3
:109DB000CC884B78E4B1120611D5D0F8BC223946D4
:109DC000D2F8089018462246C847F28839462846F5
:109DD00000F061FD4446204603B0BDE8F08387F8FB
:109DE000003287F801422246394600F069FDF1E76A
:109DF000D0F8BC22184695682246A847EBE74B7876
:109E00000A2B0CD00B2B12D0ABB990F89C32032B41
:109E100011D102220DF1060100F03DFDDBE790F8C3
:109E20009C32032B07D101220DF10501F4E790F8D4
:109E30009C32032BCFD03146284600F005FD02248A
:109E4000C9E738B504460025822100F090FE0121C3
:109E50002564204600F08BFEC4F86C518321204617
:109E600000F085FED4F8B83265654BB1D4F8BC3249
:109E70005B689847D4F8B80227F046FAC4F8B8529D
:109E8000002038BD2DE9F041037C0446BBBB4FF4F4
:109E9000007302228221012500F05FFE25644FF449
:109EA000007329460222204600F057FE0127C4F81D
:109EB0006C51082303228321204600F04EFE676583
:109EC0004FF4077027F018FA0546C4F8B80240B3FB
:109ED000D4F8BC321B689847267C4FF00008C5F8C0
:109EE0001482C5F818829EB9D5F804224FF4007385
:109EF0003946204600F071FE3046BDE8F08140232F
:109F000002228221012500F028FE25644023C8E7B3
:109F1000D5F8042240233946204600F05EFE46462E
:109F2000EAE73E46E8E719B1C0F8BC1200207047E6
:109F300002207047D0F8B8320020C3F80812C3F8E6
:109F400010227047D0F8B8320020C3F804127047CE
:109F5000D0F8B82210B582B1D2F81442012374B9F6
:109F6000C2F81432D2F810324364D2F808229BB2FD
:109F7000822100F02BFE204610BD0220FCE718468F
:109F8000FAE7D0F8B82210B582B1047CD2F80422E6
:109F900034B94FF40073012100F01FFE204610BDBC
:109FA0004023012100F019FE0024F7E70224F5E721
:109FB00008B5D0F8B83233B100231A46012100F0B9
:109FC0000CFE002008BD0220FCE7002070470000C6
:109FD00008B50948FFF76DFC0848FFF7D9FC084BA6
:109FE000064801221A70FFF7DCFC01460548FFF71E
:109FF000A9FF002008BD00BF126100204C600020B6
:10A000002C0100209861002021280ED022281DD08C
:10A01000202808D1134B0A681A600A791A714A7904
:10A020005A718A799A71002070470E4B1A680A702B
:10A030001A68120A4A705A888A70DA78CA701A79CD
:10A040000A715A794A719B798B71ECE74B88064A01
:10A0500003F0010313601368002BE4D0034B0022CC
:10A060001A60E0E724010020E0050020E40500205C
:10A0700010B50C4C22789AB90B490C4800F0A0F8A6
:10A0800070B90B49094800F0B0F848B909490748C8
:10A09000FFF749FF20B9054800F0AEF8012323700F
:10A0A00010BD00BFDC0500204401002098610020A5
:10A0B00000000020100100200A4B10B51C6814B1EC
:10A0C00000F03EFF041B084B93F89C32032B07D192
:10A0D000022C05D8054B1868003818BF012010BDA8
:10A0E0000020FCE7E405002098610020E005002046
:10A0F0001FB50F4CD4F8B832D3F81432ABB90D48B1
:10A100000DF10E01FFF71FFCBDF80E306BB1019091
:10A1100000F016FF084BBDF80E201860019920468C
:10A12000FFF708FF2046FFF713FF04B010BD00BF84
:10A130009861002012610020E405002010B5054B55
:10A14000054800241C60FFF719FCFFF7D1FF2046EB
:10A1500010BD00BFE40500201261002038B50A4D93
:10A160002B780BB1002038BD0848FFF71AFC0146D8
:10A170000028F7D0012406482C70FFF7E3FE0448BE
:10A18000FFF7FFFE2046EEE72C0100204C60002088
:10A190009861002008B509880648FFF73BFC064B8C
:10A1A00000221A70FFF7DAFF10B90448FFF700FF2A
:10A1B000002008BD4C6000202C0100209861002088
:10A1C00008B580B1D0F8B43213B10023C0F8B4326E
:10A1D00009B1C0F8B012012380F89C32027000F07F
:10A1E00077FC002008BD0220FCE719B1C0F8B412CA
:10A1F000002070470220704708B500F0A7FC00203F
:10A2000008BD08B5D0F8B4320BB9022008BD1B68F0
:10A2100098470028FAD0F8E708B5D0F8B4325B6860
:10A220009847002008BD38B5044600F52A75284631
:10A2300000F0F6FA012394F8A812C4F89432B4F8A6
:10A24000AE32C4F8983201F01F03012B08D0022B64
:10A250000BD07BB92946204600F00CF9002038BD10
:10A260002946204600F030FAF8E72946204600F05B
:10A270004FFAF3E701F08001204600F07FFCEDE7A4
:10A2800070B5044616460D4639BBD0F89432032B00
:10A290001CD1D0E9581291420BD9891A8A42C0F8D0
:10A2A00060118CBF8AB292B2314600F016FB28468C
:10A2B00070BDD0F8B4321B6923B190F89C22032AF8
:10A2C00000D19847204600F010FBF0E7052BEED1B7
:10A2D000C4F8941200F052FCE9E7D0F8B4329B695C
:10A2E00033B190F89C22032A02D198470025DEE77B
:10A2F0000225DCE7F8B5044617460D46002947D18C
:10A30000D0F89432022B3CD1D0E908639E4214D994
:10A31000F31A03629AB2394600F0CAFA2B462A466B
:10A320002946204600F059FC94F8A032012B02D1B6
:10A33000002384F8A0322846F8BDC269B2FBF3F6C8
:10A3400003FB16265EB9934209D8D0F898329A4298
:10A3500005D20A4600F0ACFAC4F89852DEE794F849
:10A360009C32032B09D1D4F8B432DB680BB1204600
:10A3700098478021204600F001FC204600F0C0FAFA
:10A38000D2E733F00403CFD1802100F0F7FBCBE715
:10A39000D0F8B4325B6933B190F89C22032A02D121
:10A3A00098470025C7E70225C5E770B50022044697
:10A3B000114601254026402300F0CFFB3346802183
:10A3C000C4F85851C4F864610022204600F0C5FB6F
:10A3D000D4F8B832A5610021666284F89C52C4F8B2
:10A3E00094126160C4F8A41223B1D4F8B4322046A8
:10A3F0005B689847002070BD01740020704790F89A
:10A400009C3280F89D32042380F89C3200207047F3
:10A4100090F89C32042B04BF90F89D3280F89C3257
:10A420000020704708B590F89C22032A04D1D0F888
:10A43000B432DB6903B19847002008BD00207047A3
:10A44000002070470020704708B5012280F89C2248
:10A45000D0F8B422017952689047002008BD10B5A9
:10A460008021044600F08AFB20460021BDE8104010
:10A4700000F084BB37B50B7803F06003202B044653
:10A480000D4612D0402B10D0002B51D14B78092B08
:10A490004ED8DFE813F0EE000A014D0003014D0035
:10A4A000870013004D00D600A300D4F8B43229462B
:10A4B0009B6820469847002003B030BD0023ADF8CC
:10A4C00006304B881A0A013A062A31D8DFE802F032
:10A4D0000416233030485200D0F8B0321B68207C7C
:10A4E0000DF106019847BDF80620002A56D0EB88EA
:10A4F000002B4AD1204600F0F8F9DCE7027CD0F8C6
:10A50000B43232B99B6A0DF10600984702234370BA
:10A51000E9E7DB6AF7E7DBB2052B09D8DFE803F0F0
:10A52000030C1014181CD0F8B0325B68002BD6D185
:10A530002046FFF794FFBEE7D0F8B0329B68F5E7FE
:10A54000D0F8B032DB68F1E7D0F8B0321B69EDE744
:10A55000D0F8B0325B69E9E7D0F8B0329B69E5E743
:10A56000037C002BE4D1D0F8B4320DF106005B6B14
:10A570009847B8E7037C002BDAD1D0F8B4320DF15C
:10A5800006001B6B98470723C1E79A4228BF1A466B
:10A5900001462046ADF8062000F07DF9EB88002B3F
:10A5A00089D1A7E78B88002BC2D1CB88002BBFD1E4
:10A5B0004D887F2DBCD890F89C32032BB8D0E9B2DF
:10A5C00080F89E1200F0FBFA204600F08EF91DB1D3
:10A5D000022384F89C326EE70123FAE78978394D2B
:10A5E00001292970A4D890F89C32022B08D0032BA3
:10A5F00015D0FFF734FF29782046FFF70DFE5AE704
:10A6000000293FF477AF01210323416080F89C3299
:10A610002046FFF7F6FD02287FF46CAF88E731B9DA
:10A62000022380F89C324160FFF7F6FD62E7416843
:10A6300001293FF45FAFC9B2FFF7EEFD29786160F1
:10A64000E6E7CA88012A7FF473AF90F89C32022BA8
:10A650000AD8002B3FF46CAF0146002341F8083FB5
:10A66000204600F018F926E7032B7FF461AF011DA7
:10A67000F6E790F89C32013B022B3FF659AFCB88AE
:10A68000022B7FF455AF0123C360D0F8A4320BB185
:10A690000323C360022204F10C01E1E74B88012B84
:10A6A0007FF409AFC4F8A43224E790F89C32013B50
:10A6B000022B3FF63DAF4B88012B7FF4FCAE00230D
:10A6C000F0E700BFE805002038B50B7803F0600222
:10A6D000402A04460D4601D05B0615D494F89C32FE
:10A6E000013B022B10D82B79022B0DD8D4F8B432B1
:10A6F00029469B6820469847EB881BB910B920462D
:10A7000000F0F3F8002038BD2046FFF7A8FEF9E777
:10A7100038B50A7802F06002202A04460B4627D09A
:10A72000402A25D092BB5A788D880979012A3DD0DC
:10A73000032A25D052BB90F89C32022B4DD0032B1C
:10A7400024D101F00F03142215F0800F02FB030344
:10A7500052D09B69D3B101F07F05142305FB03336D
:10A76000C51811F07F0353D12B60022229463FE028
:10A77000D4F8B4221946926820469047002038BD8C
:10A7800090F89C22022A1FD0032A03D02046FFF70C
:10A7900066FEF3E75A882AB94A0603D0DB880BB96C
:10A7A00000F0ECF9204600F0A0F8E7E790F89C22D2
:10A7B000022A09D0032AE9D15B88002BDED14D069D
:10A7C000F0D000F0E2F9EDE74B06DFD000F0D6F96B
:10A7D0008021204600F0D2F9D0E74A06D6D12B06D8
:10A7E0004CBF00F1140100F5AA7100230B60022296
:10A7F000204600F050F8C1E7D3F85831002BC5D0FF
:10A8000001F07F05142303FB050505F5AA75A8E7EC
:10A81000204600F0C1F908B10123A5E72860A4E7AC
:10A820000B7803704B784370CA788B7803EB022364
:10A8300043804A790B7903EB02238380CA798B79B1
:10A8400003EB0223C380704710B58021044600F05B
:10A8500095F920460021BDE8104000F08FB930B5D1
:10A8600088B1002501382B460135445D002CFAD112
:10A87000DBB201335B0013800B7003234B700223A8
:10A8800010F8015F05B930BD5A1CD2B2CD54023365
:10A890008C54DBB2F4E710B502241346C0E907225A
:10A8A000C0F894420A46002100F090F9002010BD43
:10A8B00008B513460A46002100F088F9002008BDBB
:10A8C00010B503241346C0E95722C0F894420A4643
:10A8D000002100F082F9002010BD08B513460A4699
:10A8E000002100F07AF9002008BD08B50423C0F863
:10A8F000943200231A46194600F068F9002008BD7A
:10A9000008B50523C0F8943200231A46194600F012
:10A9100064F9002008BD00000368B3F1A04F37B50B
:10A9200004463ED1204D03E0A96803F0E7F90C3559
:10A93000B5F90000431CF7D11C4B5A6B42F0800262
:10A940005A6300220192596C41F4804159645B6C56
:10A9500003F48043012101934320019B00F03EFD5D
:10A96000432000F06DFD216A01294FF0000218D14B
:10A970000F4B4FF480205861D86820F48020D860B5
:10A98000986840F480209860186840F4802018602F
:10A990002A2000F023FD2A2003B0BDE8304000F05B
:10A9A0004FBD03B030BD00BF204303080038024054
:10A9B000003C014000F57171D0F80404FFF733BC8E
:10A9C0001C2303FB0103D0F80404D3F80822FFF78B
:10A9D00057BC1C2303FB0103D0F804049A6CFFF757
:10A9E00089BCD0F80404FFF71DBD10B50446D0F8AB
:10A9F0000404FFF7DAFCD4F804040121BDE8104098
:10AA0000FFF7FABC10B50446D0F80404FFF7F7FCD2
:10AA10002268D2F8003E43F00103C2F8003E236AE8
:10AA200023B1034A136943F00603136110BD00BF4D
:10AA300000ED00E0036A10B5044633B1FEF778F884
:10AA4000084A136923F0060313612268D4F804044A
:10AA5000D2F8003E23F00103BDE81040C2F8003EEA
:10AA6000FFF7D6BC00ED00E0D0F80404FFF7E8BC27
:10AA7000D0F80404FFF7E2BCD0F80404FFF7E2BC0E
:10AA8000D0F80404FFF7E0BC014800F0A5BF00BF08
:10AA90005C64002010B50B4C236A6BB10A4A136941
:10AAA00023F006031361FEF743F82268D2F8003E54
:10AAB00023F00103C2F8003E044B4FF480225A6198
:10AAC00010BD00BF5C64002000ED00E0003C0140D0
:10AAD00070B5044600F00AF91948042343600023C6
:10AAE000C0E90933C0E9073343614FF0A042036373
:10AAF0000361C3624363C0F804440223C4F8C00284
:10AB000002608361C36000F0C3FE20B10D4840F2D3
:10AB1000FD1103F0DDF90C4C0948A188084E01F045
:10AB200070FB0125A28954F8081F304601F00F017F
:10AB3000013501F046FB052DF4D1002070BD00BFAA
:10AB40005C640020BF440308C445030808B5D0F87E
:10AB5000C00200F022FF002008BD10B51446D0F856
:10AB6000C0021A46234601F00BFA002010BD08B5BA
:10AB7000D0F8C00201F03CFA002008BD08B5D0F8BA
:10AB8000C00201F0B0FA002008BD08B5D0F8C0023C
:10AB900001F0E1FA002008BD11F0800FD0F8C032BA
:10ABA0004FF01C021BBF01F07F0102FB013102FBD1
:10ABB000013191F83E0008BF91F8FE01704708B5D9
:10ABC000D0F8C00201F0C8F9002008BD08B5D0F8DF
:10ABD000C00201F068FA002008BD08B5D0F8C00234
:10ABE00001F035FA002008BDD0F8C00201F053BAD8
:10ABF000122301480B8070473001002004230148D4
:10AC00000B80704760010020002370B54D1C1E466C
:10AC1000040FB0F1204F34BF3034373401F8134003
:10AC200005F813600133DCB294424FEA0010EFD311
:10AC300070BD00001A2310B50B80094B186808334B
:10AC40001B68C0180AD0074B07491C680822FFF789
:10AC5000DBFF064904222046FFF7D6FF044810BD5B
:10AC6000107AFF1F147AFF1F660100207601002072
:10AC70006401002010B5044C04480A462146FFF741
:10AC8000EEFD204610BD00BF64680020204503088B
:10AC90000A4608B5044920B90448FFF7E0FD024818
:10ACA00008BD0348F9E700BF646800203345030886
:10ACB0005845030810B5044C04480A462146FFF7DE
:10ACC000CEFD204610BD00BF646800207D4503080E
:10ACD00010B5044C04480A462146FFF7C0FD204643
:10ACE00010BD00BF646800209E45030808B54FF002
:10ACF000A04002F0F5FC0A2000F0C8F8BDE80840CA
:10AD00004FF0A04002F0E0BCFFF7B2B991420FD083
:10AD100008D9891A01238B40984208D30130C840D2
:10AD20000138704720B10130511A8840F8E70020FF
:10AD300070470000431E1F2B13D80C4B0C281860C3
:10AD40000B4B02DD0C221A607047062801DC06223C
:10AD5000F9E7082801DC0822F5E70A28F2DC0A22D4
:10AD6000F1E70448722103F0B3B800BF840100206A
:10AD700080010020EC45030810B5FEF777FD431C69
:10AD80000AD0064C216802F0CFFD054B21681A68F5
:10AD9000BDE81040FFF7BABF002010BD80010020C1
:10ADA0008401002041282DE9F0410E463DD8204B7A
:10ADB00033F91040621C38D01E4DC4F3031704F061
:10ADC0000F0855F8273023FA08F3DB0710D51A4986
:10ADD000204602F084FF10B1204602F049FE012314
:10ADE00003FA08F255F8273023EA020345F8273022
:10ADF000052E14D8DFE806F0030F090B0D11002112
:10AE00002046BDE8F04102F079BF1021F8E720218B
:10AE1000F6E70321F4E70121F2E70921F0E7BDE8B5
:10AE2000F0410648492103F053B8BDE8F08100BF66
:10AE300068430308EC050020543F03084746030815
:10AE400041289ABF0C4B33F910304FF0FF33C3F356
:10AE50000312052A98BF094803F00F0398BF50F862
:10AE60002220074888BF002250F8233009B193619F
:10AE700070471B04FBE700BF6843030890010020F4
:10AE80000847030802F042BE02F022BE38B504466D
:10AE900048B102F03BFE0546FEF7D0FC02F036FE5C
:10AEA000431BA342F8D338BD7047000038B50E4AA3
:10AEB0000E4B054618784FF47A73B3FBF0F3106825
:10AEC000B0FBF3F000F0DEFA044658B90F2D09D8B4
:10AED000024629464FF0FF3000F080FA044B20462E
:10AEE0001D6038BD0120FCE7AC0100208801002076
:10AEF0008C01002008B50B4B1A6842F400721A60EE
:10AF00001A6842F480621A601A6842F480721A6009
:10AF1000032000F051FA0020FFF7C8FFFFF7C4FF3D
:10AF2000002008BD003C0240034A044B11681B7816
:10AF30000B441360704700BF646900208801002043
:10AF4000014B1868704700BF6469002038B504469B
:10AF5000FFF7F6FF631C1CBF054B1B78054618BFA7
:10AF6000E418FFF7EDFF431BA342FAD338BD00BF3F
:10AF70008801002038B50446002800F09B80056C4D
:10AF800025B902F097FC656484F83C50236CDB061D
:10AF900000F18E80236C23F4885323F0020343F0E6
:10AFA00002032364444B5A6822F440325A605A68C0
:10AFB00061680A435A60236821695A6822F48072E2
:10AFC0005A605A6842EA01225A605A68A16822F01F
:10AFD00040725A605A680A435A609A68E16822F4DB
:10AFE00000629A609A680A439A603449A26A8A4267
:10AFF00052D0996821F07061996099680A439A600B
:10B000009A68E16A22F040529A609A680A439A600C
:10B010009A6822F002029A609A68217E42EA41020E
:10B020009A6094F82020002A3ED05A68616A42F45F
:10B0300000625A605A6822F460425A605A680139C4
:10B0400042EA41325A60DA6AE16922F47002DA6255
:10B05000DA6A013942EA0152DA629A6822F400722D
:10B060009A609A6894F8301042EA41229A609A688D
:10B07000616922F480629A609A68002042EA812223
:10B080009A606064236C23F0030343F0010323649C
:10B09000002384F83C3038BD9A6822F070629A60D0
:10B0A0009A6822F04052B2E75A6822F40062C9E777
:10B0B0000120EDE70120EEE7002301400100000F31
:10B0C00038B50446A0B1036C43F00203036403687F
:10B0D0009A6822F001029A609D6815F0010503D17B
:10B0E00002F00CFC65642564002084F83C0038BD47
:10B0F0000120FCE782B00023019390F83C30012B43
:10B100004ED0012380F83C3003689A68D10705D5FA
:10B110009A68D20714D4002002B070479A68214977
:10B1200042F001029A60204A1268B2FBF1F202EB8F
:10B1300042020192019A002AEAD0019A013AF8E704
:10B14000026C22F4E06222F0010242F48072026496
:10B150005A68510541BF026C22F4405242F48052B9
:10B160000264026C12F480521CBF426C22F0060290
:10B170004264002280F83C206FF022021A600B4AE1
:10B180005268D20608D1986810F04050C3D19A682E
:10B1900042F080429A60BFE7054A9342BBD1F2E792
:10B1A0000220B9E740420F00AC010020002301401B
:10B1B0000020014090F83C30012B14D003689A68BD
:10B1C00022F001029A609B68DB0707D4036C23F42A
:10B1D000885323F0010343F001030364002380F844
:10B1E0003C30184670470220704703689A68520541
:10B1F00070B504460D460BD59B68DE0508D5036C7B
:10B2000043F020030364002380F83C30012070BD2C
:10B21000FFF796FE064623681A6891070CD56FF073
:10B2200012021A60226C42F4007222649A6812F0D0
:10B23000405F13D00020EAE7681CEDD045B9236CCD
:10B2400043F004032364002384F83C300320DEE74A
:10B25000FFF776FE801BA842DDD9F0E7207E0028AC
:10B26000E8D1DA6A12F4700F02D09B685A05E1D473
:10B27000236C23F480732364236CDB04DAD4236C03
:10B2800043F001032364C2E70368D86C70470000F1
:10B29000F7B50023019390F83C30012B66D00123D1
:10B2A00080F83C300D6803688E68092DACB231D946
:10B2B00004EB4402DF681E3A4FF0070C0CFA02FC64
:10B2C00027EA0C07DF60DF6806FA02F23A43DA6029
:10B2D0004968062901EB81022CD8596B053A1F26D3
:10B2E000964021EA06015963596B04FA02F20A43B7
:10B2F0005A632C4A934207D1122D39D1D2F8043324
:10B3000043F48003C2F80433002380F83C3018462D
:10B3100003B0F0BD1F6905EB45024FF0070C0CFAB6
:10B3200002FC27EA0C071F611F6906FA02F23A4382
:10B330001A61CDE70C294FF01F010BD81E6B233A81
:10B34000914026EA01011963196B04FA02F20A43DB
:10B350001A63CEE7DE6A413A914026EA0101D962DA
:10B36000D96A04FA02F20A43DA62C2E70220CFE79E
:10B37000A5F11003012BC7D80B4A5368102D43F4D5
:10B3800000035360C0D1094B094A1B68B3FBF2F2BA
:10B390000A2353430193019B002BB5D0019B013B32
:10B3A000F8E700BF0020014000230140AC0100206D
:10B3B00040420F00006C70470749CA6822F4E062FF
:10B3C0000302120403F4E063120C134343F0BF635F
:10B3D00043F40033CB60704700ED00E0164B30B50E
:10B3E000DC68C4F30224C4F10705231D042D28BF23
:10B3F0000425062B4FF0FF338CBF033C002403FAD7
:10B4000005F521EA0501A34022EA0302A140002834
:10B4100041EA0203ACBF00F16040084A4FEA03135F
:10B42000B8BF00F00F00DBB2AABF00F561401354B3
:10B4300080F8003330BD00BF00ED00E014ED00E007
:10B44000002808DB4209012300F01F0003FA00F086
:10B45000014B43F82200704700E100E000280DDBBB
:10B460004309012200F01F0002FA00F02033044AD1
:10B4700042F82300BFF34F8FBFF36F8F704700BFB9
:10B4800000E100E00138B0F1807F0AD2064B074AA4
:10B490005860F02182F823100020072298601A607B
:10B4A00070470120704700BF10E000E000ED00E0B1
:10B4B000002809DB4309012200F01F0002FA00F016
:10B4C0006033024A42F82300704700BF00E100E009
:10B4D00008B503F07FF808BD90F83530022B03D093
:10B4E00080234365012070470268052380F83530CA
:10B4F000136823F00103136000207047094910B559
:10B500000C6924F440740C610C6944F440740C61BF
:10B510000C6944F001040C610260BFF36F8F43605B
:10B5200010BD00BF003C0240074B1A6922F4407274
:10B530001A611A6942F400721A611A6942F0010232
:10B540001A610160704700BF003C0240074B1A6956
:10B5500022F440721A611A6942F480721A611A69FF
:10B5600042F001021A610180704700BF003C0240B6
:10B57000204BDA68D00606D51F49CA6942F010028E
:10B58000CA611022DA60DA68910606D51A49CA69DA
:10B5900042F00802CA612022DA60164BDA685206CD
:10B5A00006D51549CA6942F00402CA614022DA6030
:10B5B000DA68100606D51049CA6942F00202CA616B
:10B5C0008022DA600B4BDA68D10507D50A49CA69CF
:10B5D00042F00102CA614FF48072DA60DA689207C1
:10B5E00006D50549CA6942F02002CA610222DA6022
:10B5F000704700BF003C024068690020064B1A6992
:10B60000002ABFBF054A5A6002F188325A60BABFA9
:10B610001869C00F00207047003C024023016745B5
:10B62000034A136943F0004313610020704700BFD1
:10B63000003C0240F8B5124B124D00220446DA617C
:10B64000FFF77EFC2F460646EB68DA030CD4EB6866
:10B65000DB0744BF0123EB60F86810F4F97007D0F2
:10B66000FFF786FF012003E0611CEDD00CB9032039
:10B67000F8BDFFF765FC801BA042E5D9F7E700BFE6
:10B6800068690020003C0240F7B5204E0193144643
:10B69000327E012A07460D4635D001224CF2503049
:10B6A0003276FFF7C7FFB8B9019BCFB9184B1869BD
:10B6B00020F4407018611A691A611869E4B240F008
:10B6C000010018612C704CF25030FFF7B3FF104AA4
:10B6D000136923F0010313610023337603B0F0BD37
:10B6E000012F04D1A1B22846FFF730FFEBE7022F6C
:10B6F00004D121462846FFF717FFE4E722462846F3
:10B70000FFF7FCFEDFE70220E8E700BF68690020E2
:10B71000003C0240074B196921F440711961196915
:10B7200041F0040119611A6942EA002040F48030B6
:10B7300018617047003C024039B101291CD0022930
:10B740000CBF4FF400714FF440710D4B1A6922F495
:10B7500040721A611A69114319611A6922F0F802DC
:10B760001A611A6942EAC00040F0020018611A69C1
:10B7700042F480321A6170474FF48071E5E700BFF0
:10B78000003C0240144B1A6891050FD51A6822F448
:10B7900000721A601A6842F400621A601A6822F491
:10B7A00000621A601A6842F400721A600A4B1A6842
:10B7B00052050FD51A6822F480621A601A6842F4A2
:10B7C00080521A601A6822F480521A601A6842F491
:10B7D00080621A60704700BF003C02402DE9F843C8
:10B7E000234E337E012B054688463FD001234CF281
:10B7F00050303376FFF71EFF0446A8B94FF0FF33F1
:10B80000C8F800302B68012B13D1287CFFF782FF8A
:10B810004CF25030FFF70EFF164A136923F0040371
:10B8200004461361FFF7AEFF002333762046BDE8E0
:10B83000F883AF68DFF83C90D5E902231344BB429C
:10B84000F0D9297C3846FFF777FF4CF25030FFF7EC
:10B85000F1FED9F8103023F0FA03C9F8103018B10E
:10B86000C8F800700446DDE70137E5E70224DDE7AC
:10B8700068690020003C0240044A5169014208B551
:10B8800002D0506102F076F908BD00BF003C0140D3
:10B89000F0B504468BB060B390F8BD33056803F093
:10B8A000FF021BB980F8BC23FFF736F8032384F8A6
:10B8B000BD33EB6B254613F4807355F8100B08BFAE
:10B8C000236101F089FB0FCD6E460FC60FCD0FC669
:10B8D00095E8030086E803002546271D97E80E003B
:10B8E00055F8100B01F0C2FA064620B1022384F885
:10B8F000BD3301254EE00146206801F073FB304660
:10B90000D4F804C01C264FF0010E0146C2B2944583
:10B9100000F101001CD800231C261946D8B284452A
:10B9200003F1010322D80FCD6E460FC60FCD0FC60F
:10B9300095E8030086E8030097E80E00206801F010
:10B9400093FB01230546F0B1022284F8BD23D0E722
:10B9500006FB0243C3E9111183F83DE083F83C2064
:10B96000A3F8422083F83F101965CFE706FB004299
:10B97000C2E9811182F8FD1182F8FC0182F8FF1101
:10B98000C2F81012CAE784F83800206884F8BD3382
:10B9900001F0A6FE28460BB0F0BD10B504460068C5
:10B9A00094F8BC33012B15D0012384F8BC33A36A6F
:10B9B000012B06D1A369012B1EBF836B43F4803397
:10B9C000836301F081FE206801F000FB002084F811
:10B9D000BC0310BD0220FCE72DE9F04F066887B0DC
:10B9E0000446304601F0B7FE0290002840F0248162
:10B9F000206801F081FE002800F01E81206801F01F
:10BA00007BFE830748BF2268206842BF536903F06A
:10BA10000203536101F070FE070300F110812068FA
:10BA200001F06AFE45030CD5206801F071FE254641
:10BA3000039006F510694FF00008039B002B40F0BF
:10BA4000BD81206801F058FE002815DAD6F80438C8
:10BA500023F00103C6F8043894F8F433012B40F0C6
:10BA60004182002184F8F413204600F0CEFB2268C6
:10BA7000536903F000435361206801F03DFE000567
:10BA80000BD5D6F80838D90702D52046FEF7BAFFFD
:10BA90002268536903F400635361206801F02CFEAF
:10BAA000C20437D5D6F80438206823F001031021EA
:10BAB000C6F8043801F0AEFA06F5006506F5106325
:10BAC0004FF67F3162680298824200F20F82EB6982
:10BAD00043F00113EB61236B002B00F01982D5F8C2
:10BAE000843043F00B03C5F884306B6C43F00B03D8
:10BAF0006B64D6F80038217C206823F4FE63C6F816
:10BB0000003804F5717201F047FE2268536903F4AE
:10BB100080535361206801F0EFFD830416D520683F
:10BB200001F01DFE206801F067FBE060256800F071
:10BB3000DFFD227B0146284601F0D8F92046FEF7BA
:10BB400054FF2268536903F400535361206801F0E5
:10BB5000D3FDC7062AD52268936923F010039361A9
:10BB6000376AC7F34343022B07F00F0540F0DB8130
:10BB700047F6F0731F4214D01C2303FB0545C7F39F
:10BB80000A184246D5F80812304601F02BFDD5F8C8
:10BB90000822D5F8143242444344C5F80822C5F8B7
:10BBA00014322268936943F010039361206801F016
:10BBB000A3FD060707D52046FEF713FF2268536949
:10BBC00003F008035361206801F096FDC50208D513
:10BBD00000212046FEF74CFF2268536903F48013CE
:10BBE0005361206801F088FD800208D500212046BD
:10BBF000FEF73AFF2268536903F40013536120688B
:10BC000001F07AFD410007D52046FEF735FF226896
:10BC1000536903F080435361206801F06DFD4207D2
:10BC20000AD523685D686B0702D52046FEF728FF1A
:10BC3000226853682B43536007B0BDE8F08F20683B
:10BC4000DFF810B301F05CFD06F53065804604F5C1
:10BC5000017A4FF00009B8F1000F3FF4E0AE18F0A0
:10BC6000010F00F0A3805FFA89F12068039101F0D1
:10BC700057FD10F0010F039907464DD00123AB602B
:10BC800023682069D3F840C003F5306303EB491300
:10BC900001289A6854D1100714D5DC4504D9120440
:10BCA00044BF4FF400429A6020460393FEF782FEA1
:10BCB00004F571722068012101F06EFD039B0822DA
:10BCC0009A6029E0900601D52022F9E712F0280FAA
:10BCD00022D1DC4504D9120402D54FF40042EFE72B
:10BCE0001B69DAF80020C3F31203D31ACAF8103024
:10BCF000DAF804301A44CAF804202046FEF760FE41
:10BD0000B9F1000F08D1D4F810322BB9206804F52E
:10BD10007172012101F040FD380732D52368206996
:10BD20001A6C03F5306303EB49130128996814D1A9
:10BD30005A4515D9090444BF4FF4004199600FE0FA
:10BD40008348844505D11004C7D4920644BF2022FD
:10BD50009A602046FEF734FEDEE77D488242E9D055
:10BD600020460392FEF726FE039A5A4507D9216919
:10BD7000012904D1206804F5717201F00DFD08233A
:10BD8000AB60FB0644BF1023AB60B80609D5216940
:10BD9000012904D1206804F5717201F0FDFC202313
:10BDA000AB60B90444BF4FF40053AB6009F1010923
:10BDB0004FEA580820350AF11C0A4CE7039BDA07C2
:10BDC00040F187805FFA88FB2068594601F0B1FC9A
:10BDD000C307074624D5D6F83438012008F00F02EF
:10BDE00000FA02F223EA0203C6F834382369C9F8DC
:10BDF0000800834202BFD5E911239B18AB64594662
:10BE00002046FEF7E6FD2169012909D1B8F1000FAE
:10BE100006D1236D23B9206804F5717201F0BCFCD2
:10BE2000380744BF0823C9F80830F90644BF102377
:10BE3000C9F808307A0644BF4023C9F80830BB0768
:10BE400044BF0223C9F808303F0642D5D5E9143271
:10BE50009A423ED89B1A6A6CD4F800A0934228BF3D
:10BE6000134603339B0804930AF5106303EB48134E
:10BE70000593059B04999A6992B28A42D5E9147395
:10BE800025D39F4200D95FB9DAF8343808F00F02A1
:10BE9000012101FA02F223EA0203CAF8343818E059
:10BEA000FF1A6B6C9F4228BF1F46FB1C9B08049324
:10BEB000237C0093A96CBBB25A46504601F090FA1D
:10BEC000AB6C3B44AB646B6D1F446F65D1E79F4225
:10BED000DAD9039B5B0808F1010803931C3509F1CB
:10BEE0002009AAE52046FEF7A5FDC0E599601A687D
:10BEF00022F400121A60C3F80812D3F8002222F4C8
:10BF00000012C3F80022029A013202922033D9E5CE
:10BF10006B6943F4005343F02B036B612B6943F0CF
:10BF20000B032B61E5E5062B7FF43BAE082204F5FD
:10BF30007171304601F056FB1C2303FB0545C7F326
:10BF40000A17D5F814321F44C5F8147229E600BF49
:10BF50000A31544F0A30544F10B590F8BC23012ACF
:10BF600004460BD0012280F8BC2380F8381000680A
:10BF700001F09AFB002084F8BC0310BD0220FCE70E
:10BF800070B501F00F06C6EBC60411F0800F054630
:10BF90004FEA84044FF01C001FD000FB065004F150
:10BFA0003C010124294480F83D408A604A780E70A3
:10BFB000CB7002B1CE80022B04BF00230B7195F829
:10BFC000BC33012B12D00123286885F8BC3301F063
:10BFD0001EF9002085F8BC0370BD00FB065004F577
:10BFE000FE710024294480F8FD41DEE70220F3E7DA
:10BFF00010B5044601F00F00C0EBC00311F0800F34
:10C000004FEA83034FF01C0216D002FB004203F1FB
:10C010003C010123214482F83D30087094F8BC3380
:10C02000012B12D00123206884F8BC3301F02EF9D3
:10C03000002084F8BC0310BD02FB004203F5FE7132
:10C040000023214482F8FD31E7E70220F3E738B509
:10C0500001F00F051C2404FB050104FB050401F598
:10C06000FE71C4F810320023C4F80822C4F8143258
:10C0700084F8FD3184F8FC5103690068012B08BF86
:10C08000C4F80C22DAB21DB901F030F9002038BD35
:10C0900001F0BAF9FAE701F00F011C2303FB0100DC
:10C0A000D0F81402704738B501F00F051C2404FBCA
:10C0B000050104FB05043C3123650023636501236E
:10C0C000A26484F83D3084F83C5003690068012B79
:10C0D00008BFE264DAB21DB901F008F9002038BDEA
:10C0E00001F092F9FAE738B5436801F00F059D4277
:10C0F00004462CD811F0800F4FF01C001ED000FB1E
:10C10000054200FB054101233C3182F83D3001230B
:10C110008B700D7094F8BC239A421AD0206884F872
:10C12000BC3301F06DFA2DB9217C206804F57172E1
:10C1300001F032FB002084F8BC0338BD00FB014352
:10C140001A4603F5FE71002382F8FD31DFE7012076
:10C15000F3E70220F1E738B5436801F00F029A4295
:10C1600004462AD8C2EBC20311F0800F4FEA8303C2
:10C170004FF01C0018D000FB024003F13C010123EA
:10C18000214480F83D3000258D700A7094F8BC334E
:10C19000012B14D00123206884F8BC3301F05BFA32
:10C1A00084F8BC53284638BD00FB024003F5FE71FD
:10C1B0000023214480F8FD31E5E70120F3E7022068
:10C1C000F1E7006870B51204446A19B9224382622B
:10C1D000002070BD836A4D1E04EB134400235E1CD7
:10C1E000DBB29D4205D83F3100EB81002243426023
:10C1F000EEE7403300EB83035B6804EB1344334604
:10C20000EDE7036800205962704770472DE9F3415C
:10C21000044640B30368DD0710D4236898075ED452
:10C2200023681A0700F1A08023685B0700F1BE8035
:10C23000A069002840F01F8100202BE0A64B9A68DF
:10C2400002F00C02042A07D09A6802F00C02082AB5
:10C250000BD15A68510208D59F4B1B689A03DCD555
:10C260006368002BD9D1012014E06268B2F5803FE9
:10C2700013D11A6842F480321A60FEF761FE964EBE
:10C28000054633689B03C8D4FEF75AFE401B64285A
:10C29000F7D9032002B0BDE8F0818F4DB2F5A02F91
:10C2A0002B6807D143F480232B602B6843F4803341
:10C2B0002B60E2E723F480332B602B6823F4802388
:10C2C0002B60002AD9D1FEF73BFE06462B689F0360
:10C2D000A3D5FEF735FE801B6428F7D9D9E77E4B3E
:10C2E0009A6812F00C0F07D09A6802F00C02082A24
:10C2F00011D15B685E020ED4774B1A68950702D5A0
:10C30000E268012AAFD11A68216922F0F80242EAF4
:10C31000C1021A6084E7E268704BB2B101221A6070
:10C32000FEF70EFE6C4D06462B68980707D52B6866
:10C33000226923F0F80343EAC2032B6070E7FEF79B
:10C34000FFFD801B0228EFD9A3E71A60FEF7F8FD76
:10C35000614E0546336899077FF562AFFEF7F0FD41
:10C36000401B0228F6D994E762695D4B7AB101223D
:10C370001A60FEF7E5FD584E0546736F9F073FF5BF
:10C3800053AFFEF7DDFD401B0228F6D981E71A60A6
:10C39000FEF7D6FD504E0546736F98077FF544AF04
:10C3A000FEF7CEFD401B0228F6D972E74A4B1A6C05
:10C3B00012F0805228D101921A6C42F080521A6415
:10C3C0001B6C03F080530193019B0127454D2B68A3
:10C3D000D9051BD5A368404D012B27D12B6F43F006
:10C3E00001032B67FEF7ACFD3B4E054641F2883852
:10C3F000336F9B0739D5002F3FF41AAF364A136CC1
:10C4000023F08053136413E70027DFE72B6843F41E
:10C4100080732B60FEF794FD06462B68DA05D9D4AD
:10C42000FEF78EFD801B0228F7D932E7052B04D1D9
:10C430002B6F43F004032B67D0E72A6F22F0010231
:10C440002A672A6F22F004022A67002BCAD1FEF75E
:10C4500077FD41F2883806462B6F9807CBD5FEF75B
:10C460006FFD801B4045F7D913E7FEF769FD401BC0
:10C470004045BDD90DE7184DAB6803F00C03082B00
:10C4800047D0194E00230228336035D1FEF758FDFE
:10C4900007462B68990129D4D4E907321343626A0D
:10C4A00043EA8213E26A43EA0263A26A5208013A4B
:10C4B00043EA02436B6001233360FEF741FD064D02
:10C4C00004462B689A013FF5B7AEFEF739FD001B15
:10C4D0000228F6D9DDE600BF0038024000004742DE
:10C4E000800E47420070004060004742FEF728FD82
:10C4F000C01B0228CDD9CCE6FEF722FD04462B68EE
:10C500009B017FF599AEFEF71BFD001B0228F6D9B3
:10C51000BFE601283FF4BEAEAB68E26903F48001D8
:10C5200091427FF4A0AE216A03F03F028A427FF479
:10C530009AAE616A47F6C0721A408A427FF493AE9F
:10C54000A16A03F440328A427FF48DAEE26A03F0BE
:10C55000706393423FF470AE85E600BF134908B59F
:10C560008B6803F00C03042B1CD0082B1CD14A68E9
:10C570004B68496813F4800314BF0D480D48C1F39C
:10C58000881118BF002302F03F02A1FB0001FCF755
:10C590003BFA064B5B68C3F3014301335B00B0FB1E
:10C5A000F3F008BD0248FCE70248FAE70038024011
:10C5B00000127A000024F4002DE9F0410D460446F3
:10C5C00010B90120BDE8F081444B1A6802F00F0257
:10C5D0008A4228D3226897072DD4D00741D43F4BF5
:10C5E0001A6802F00F02AA4266D8226851076CD47A
:10C5F000130707D53A4A2169936823F4604343EA55
:10C60000C1039360FFF7AAFF354B364A9B68C3F31B
:10C610000313D35CD840344B1860344B1868FEF7D2
:10C6200045FC0020CEE7CAB21A701B6803F00F0366
:10C630008B42C6D1CEE72A4B12F0040F1EBF996879
:10C6400041F4E0519960160742BF996841F4604196
:10C6500099602349A0688B6823F0F00303438B6043
:10C66000BBE762681E4B012A1CD11B6813F4003F14
:10C67000A7D01B4EB36823F003031343B360FEF748
:10C680005FFC41F288380746B368626803F00C0328
:10C69000B3EB820FA3D0FEF753FCC01B4045F3D988
:10C6A00003208FE7911E01291B6802D813F0007F39
:10C6B000DEE713F0020FDBE7EAB21A701B6803F043
:10C6C0000F03AB427FF47DAF8FE70549E0688B68CD
:10C6D00023F4E05303438B608AE700BF003C024031
:10C6E0000038024048470308AC0100208C010020BC
:10C6F000014B1868704700BFAC010020044B054A8D
:10C700009B68C3F38223D35C034A1068D840704708
:10C710000038024058470308AC010020044B054A8A
:10C720009B68C3F34233D35C034A1068D840704718
:10C730000038024058470308AC0100200F23036073
:10C740000B4B9A6802F0030242609A6802F0F00212
:10C7500082609A6802F4E052C2609B68DB0803F4CE
:10C76000E0530361034B1B6803F00F030B6070473A
:10C7700000380240003C0240032303600C4BD3F816
:10C780008420C2F388124260D3F88420C2F302727C
:10C79000826099681A6F01F4F81102F440720A433A
:10C7A000C260D3F88C30C3F300630374704700BFDA
:10C7B00000380240704710B50446002836D00023E8
:10C7C000836290F8513003F0FF021BB980F85020CB
:10C7D000FFF7F0FF2168A269022384F851300B684B
:10C7E00023F040030B60D4E901300343E0680343C6
:10C7F0002069034360690343E0690343206A0343FC
:10C80000A06A034302F4007003430B60120C636AD6
:10C8100002F004021A434A60CB6923F40063CB613F
:10C8200000200123606584F8513010BD0120FCE731
:10C83000022380F83D3003689A6802F00702062A56
:10C840001EBF1A6842F001021A60012380F83D30D1
:10C850000020704790F83C30012B4FF0020309D0C4
:10C8600080F83D3003685961012380F83D30002392
:10C8700080F83C30184670477047704703681A6963
:10C88000910710B504460ED5DA6892070BD56FF004
:10C8900002021A61012202779B699B0777D0FCF79D
:10C8A000EDFD0023237723681A69500710D5DA6855
:10C8B00051070DD56FF004021A61022222779B699D
:10C8C00013F4407F204668D0FCF7D8FD002323777F
:10C8D00023681A6912070FD5DA6810070CD56FF0B4
:10C8E00008021A6104222277DB69990720465AD090
:10C8F000FCF7C4FD0023237723681A69D20610D5FC
:10C90000DA68D0060DD56FF010021A61082222777E
:10C91000DB6913F4407F20464BD0FCF7AFFD0023CA
:10C92000237723681A69D10708D5DA68D20705D5B5
:10C930006FF001021A612046FCF774FD23681A6942
:10C94000100608D5DA68110605D56FF080021A6165
:10C95000204600F002F923681A69520608D5DA6801
:10C96000500605D56FF040021A612046FFF785FF9B
:10C9700023681A69910622D5DA6892061FD56FF0EE
:10C98000200220461A61BDE8104000F0E5B8FCF72F
:10C9900073FD2046FFF770FF83E7FCF76DFD20462F
:10C9A000FFF76AFF92E7FCF767FD2046FFF764FF99
:10C9B000A0E7FCF761FD2046FFF75EFFAFE710BD83
:10C9C000244A036890420ED0B0F1804F0BD0A2F5FC
:10C9D0007C42904207D002F58062904203D002F57B
:10C9E0008062904215D14A6823F070031343194ABC
:10C9F000904219D0B0F1804F16D0A2F57C429042FF
:10CA000012D002F5806290420ED002F58062904210
:10CA10000AD0114A904207D002F58062904203D0BA
:10CA200002F58062904203D1CA6823F44073134335
:10CA30004A6923F08003134303608B68C3620B6869
:10CA40008362044B984204BF0B6903630123436173
:10CA5000704700BF000001400040014010B504468F
:10CA6000A0B190F83D3003F0FF021BB980F83C20E4
:10CA700001F0FEFB0223206884F83D30211DFFF702
:10CA80009FFF012384F83D30002010BD0120FCE70A
:10CA9000036A01F01F0110B501248C4023EA04034E
:10CAA0000362036A8A401A43026210BD10B504464D
:10CAB00001220068FFF7ECFF2368094A934202BF96
:10CAC0005A6C42F400425A649A6802F00702062A3D
:10CAD0001EBF1A6842F001021A60002010BD00BF9C
:10CAE00000000140FFF7E2BF10B5044601220068D4
:10CAF000FFF7CEFF23689A6802F00702062A1EBFDE
:10CB00001A6842F001021A60002010BD036A01F0A9
:10CB10001F0110B504248C4023EA04030362036A56
:10CB20008A401A43026210BD10B504460422006810
:10CB3000FFF7ECFF23685A6C42F400425A649A688B
:10CB400002F00702062A1EBF1A6842F001021A60AC
:10CB5000002010BDFFF7E8BF704770470368DA6830
:10CB600022F49072DA605A6922F001025A6120239D
:10CB700080F83A30704790F83930202B18D1A9B19D
:10CB8000A2B190F83830012B12D0C28401628284A5
:10CB9000016800232122C36380F8383080F83920EF
:10CBA000CA6842F08002CA60184670470120704788
:10CBB0000220704790F83A30202B20D1E9B1E2B141
:10CBC00090F83830012B1AD0C285828500232222AA
:10CBD000C36380F83A20026880F838308162D168F7
:10CBE00041F48071D160516941F001015161D16816
:10CBF00041F02001D16018467047012070470220A3
:10CC0000704710B590F83A30222B33D1816804690F
:10CC1000836A0268B1F5805F23D15268ECB9C2F330
:10CC2000080223F8022B8362C48D013CA4B2C485A0
:10CC30008CB90368DA6822F02002DA60DA6822F43C
:10CC40008072DA605A6922F001025A61202380F86A
:10CC50003A3001F0CDFB00200DE0D2B223F8012BD9
:10CC6000E1E7591C526881620CB91A70DCE702F0E6
:10CC70007F02FAE7022010BD03681A68D96870B510
:10CC800016075D69044607D196065CD58D065AD510
:10CC9000BDE87040FFF7B5BF05F0010001F49075E5
:10CCA000054350D0D60705D5CD0542BFE36B43F011
:10CCB0000103E363530704D518B1E36B43F00203A8
:10CCC000E363960704D518B1E36B43F00403E36311
:10CCD000150707D501F0200303431EBFE36B43F0A4
:10CCE0000803E363E36B4BB3900604D5890602D5D2
:10CCF0002046FFF786FF23685B69E56B03F040037E
:10CD000005F008051D43204619D0FFF727FF2368CB
:10CD10005A6952060FD55A69606B22F040025A6177
:10CD200048B1264B0365FEF7D7FB38B1606BBDE811
:10CD30007040036D1847204601F070FB70BD01F094
:10CD40006DFBE563FAE7160628D50D0626D594F89F
:10CD50003920212AF2D1A168226AB1F5805F18D169
:10CD60001188C1F308015960216981B90232226238
:10CD7000E28C013A92B2E284002ADFD1DA6822F032
:10CD80008002DA60DA6842F04002DA60D6E7013207
:10CD9000EDE7511C216212785A60E9E75006CDD5C3
:10CDA0004A06CBD5DA6822F04002DA60202384F804
:10CDB0003930204601F01FFBC0E700BFC1CD00089D
:10CDC00008B5806B0023C385C38401F027FB08BD31
:10CDD00090F83830012B11D00268242380F83930C4
:10CDE000D36823F00C0343F00803D360202380F8BA
:10CDF0003930002380F838301846704702207047D9
:10CE000090F83830012B11D00268242380F8393093
:10CE1000D36823F00C0343F00403D360202380F88D
:10CE20003930002380F838301846704702207047A8
:10CE300090F8392090F83A00104370470A4B013BB4
:10CE40000FD00269002AFADA0369074A43F00103A6
:10CE50000361013A05D0036913F00103F9D11846C3
:10CE600070470320704700BF410D030084B038B500
:10CE700005AD85E80E000A9B012B044625D1836B86
:10CE800023F480338363C36823F4840323F04003D3
:10CE9000C360C36823F44013C360119B012B02BF1E
:10CEA000C36843F48013C360FFF7C8FF089B012BDE
:10CEB00007D1A36843F00603A360A36843F02003EF
:10CEC000A360BDE8384004B07047C36843F0400336
:10CED000C360FFF7B3FF0E9B23B9A36B43F480330A
:10CEE000A363E3E7A36B23F48033F9E7022A4AD173
:10CEF000274B284A0B44934239D9274B274A0B44E6
:10CF0000934236D9264AA1F57403A3F510539342F0
:10CF100031D9244AA1F18373A3F5E74393422CD37B
:10CF2000214B224A0B44934229D9214B214A0B44DD
:10CF3000934226D3204B214A0B44934223D3204AC9
:10CF4000A1F1B773A3F5585393421ED31D4B1E4A4C
:10CF50000B44934234BF07230623C26822F4705265
:10CF6000C260C26842EA8323C360002070470F2377
:10CF7000F3E70E23F1E70D23EFE70C23EDE70B2397
:10CF8000EBE70A23E9E70923E7E70823E5E700BF22
:10CF9000405327FFFF340C00401E1BFF3F420F0091
:10CFA0007F4F120020D6130060B6E5FE5FE3160047
:10CFB00000D3CEFE40771B00C05BB3FEC0912100C2
:10CFC00020753800E05459FEE09C4100836843F02E
:10CFD0000103836000207047836823F001038360AE
:10CFE0000020704708B5C368012923F0C043C3601F
:10CFF00008D1C36843F00053C3603220FDF7A6FF99
:10D00000002008BD19B9C36843F08043F4E701204C
:10D01000F7E70000890141F02001064A0161013A69
:10D0200005D0036913F02003F9D118467047032097
:10D03000704700BF410D03001023064A0361013A07
:10D0400005D0036913F01003F9D118467047032087
:10D05000704700BF410D0300D0F800381943C0F8F5
:10D06000001800207047000084B02DE9F047044606
:10D0700009A880E80E0000230C9E139D0F46194658
:10D0800003F1400204EB820201330F2B5160F7D110
:10D09000002D7BD1A36B43F40013A363A36B23F494
:10D0A0000023A363A36B23F48023A3630023C4F8AA
:10D0B000003ED4F80038C4F800380E9B012B04F56C
:10D0C00000686DD10B99002968D12046FFF7C4FF95
:10D0D00010212046FFF79EFF01462046FFF7ACFFD8
:10D0E0000843C0B200230038C8F8103018BF012030
:10D0F000C8F8143004F51062C8F81C3019464FF017
:10D10000904C4FF0006E4FF67F39BB424AD100225F
:10D1100004F5306311464FF0904C4FF0006E4FF61F
:10D120007F39BA4251D1D8F81030012E23F48073E0
:10D13000C8F810300AD12E4BC8F83030D8F830304B
:10D1400043F4803343F00303C8F830300023A36175
:10D150006FF0804363611EB9A36943F01003A361BC
:10D16000A269244B1343A3610F9B1BB1A36943F036
:10D170000803A361012D01BFA36943F0804343F07D
:10D180000403A361BDE8F04704B07047236823F4AB
:10D1900000132360A36B43F4002386E7194694E74A
:10D1A000032192E7D2F800A0BAF1000F0BDA3BB9E5
:10D1B000C2F800E011610133C2F808902032A4E700
:10D1C000C2F800C0F6E71160F4E7D3F800A0BAF1A6
:10D1D000000F0BDA3AB9C3F800E019610132C3F865
:10D1E000089020339DE7C3F800C0F6E71960F4E724
:10D1F0000001800000383C80D0F8083813F00600A9
:10D2000004D013F0020F14BF02200F20704730B576
:10D210000D78012405F00F039C404B7800F5006267
:10D22000012B00EB4510D36918D11C43D461D0F811
:10D2300000391A0410D48A68D0F80049C2F30A03EE
:10D24000CA78234343EA824343EA855343F0805339
:10D2500043F40043C0F80039002030BD43EA0444E1
:10D26000D461D0F8003B1B04F6D48B68D0F8002BB7
:10D27000C3F30A031343CA7843EA824343F080535B
:10D2800043F40043C0F8003BE6E7000030B50C78FB
:10D29000497800F5006204F00F050123012903FA23
:10D2A00005F3D16B00EB44100ED121EA0301D163E9
:10D2B000D16921EA0303D361D0F80029094B134057
:10D2C000C0F80039002030BD21EA0341D163D169A3
:10D2D00021EA0343D361D0F8002B034B1340C0F87D
:10D2E000003BEFE7007833EC0078F3EF4B78DFF8A2
:10D2F000ECC0F0B50E784D69374F012B00EB4614AA
:10D3000046D104F51063BDB91D692F401F611D6929
:10D3100045F400251D611D6905EA0C05012A1D6102
:10D3200023D10A6902B15A61D4F8003943F00443A9
:10D33000C4F800390020F0BDD3F810E00EEA0C0C60
:10D34000C3F810C0D3F810C00CEA07071F618F683C
:10D35000AF421D6938BF4F6145F400251D614D691D
:10D360001F69C5F312053D43D8E7D4F8003943F0EF
:10D370000443C4F800394B69002BDBD0D0F83428C3
:10D3800006F00F060123B3401343C0F83438D1E749
:10D39000D4F8100B00EA0C00C4F8100BD4F8100BF2
:10D3A000384004F530631861886805B148611D692B
:10D3B00045F400251D611D69C0F312002843012AB0
:10D3C000186102D1CA6802B15A61D4F8003B43F037
:10D3D0000443C4F8003BADE7FFFF07E00000F8FF9F
:10D3E00010B59DF8084044B9033301329B0800EBA7
:10D3F000023001EB83038B4201D1002010BD51F8B4
:10D40000042B0260F7E700002DE9F3414D780F7817
:10D410004B69CE78DFF8C0C1DFF8C0E1012D00EB29
:10D42000471440F08E8004F51065D5F810806BBB72
:10D4300008EA0C0CC5F810C0D5F810C04CF4002C4C
:10D44000C5F810C0D5F810C00CEA0E0EC5F810E0F3
:10D45000012A4ED10B6903B16B61012E0CD1D0F8BA
:10D46000083813F4807FD4F800390CBF43F0005320
:10D4700043F08053C4F80039D4F8003943F0044332
:10D48000C4F80039002002B0BDE8F08108EA0E0EB1
:10D49000C5F810E0D5F810E00EEA0C0CD1F808E061
:10D4A000C5F810C00EEB030C0CF1FF3CBCFBFEFEFC
:10D4B000DFF82CC1D5F810800CEACE4C4CEA080CF1
:10D4C000C5F810C0D5F810E0C3F3120C4CEA0E0CEE
:10D4D000012EC5F810C0BBD1D5F810C02CF0C04C3F
:10D4E000C5F810C0D5F810C04CF0005CC5F810C0ED
:10D4F000AEE7D4F80059012E45F00445C4F80059B0
:10D500000BD0002BBED0D0F8343807F00F02012723
:10D5100097401F43C0F83478B4E7D0F8085815F4A2
:10D52000807FD4F800590CBF45F0005545F0805578
:10D53000C4F800590092C9689BB23A46FFF750FF01
:10D54000A0E7D4F8105B05EA0E05C4F8105BD4F828
:10D55000105B05EA0C0504F530673D618D681BBB67
:10D560003B69C5F312051D433D613B6943F400234C
:10D57000012A3B6102D1CB6803B17B61012E0CD142
:10D58000D0F8083813F4807FD4F8003B0CBF43F088
:10D59000005343F08053C4F8003BD4F8003B43F001
:10D5A0000443C4F8003B6DE7DFF834C0D7F810E05F
:10D5B0002B44013BB3FBF5F30CEAC34C4CEA0E0CD5
:10D5C000C7F810C09BB2D7F810C06B43C3F3120367
:10D5D00043EA0C03CCE700BFFFFF07E00000F8FFC1
:10D5E0000000F81F0332920801EB820200F5805020
:10D5F000914201D108467047036841F8043BF7E7C0
:10D600004A780B78012A00EB431012D1D0F8002998
:10D61000002A06DB2BB1D0F8003923F08043C0F894
:10D620000039D0F8003943F40013C0F80039002065
:10D630007047D0F8002B002A06DB2BB1D0F8003B56
:10D6400023F08043C0F8003BD0F8003B43F40013C4
:10D65000C0F8003BEBE70B784A7800EB4310CB783F
:10D66000012AA3F10203DBB20FD1D0F80029012B6C
:10D6700022F40012C0F8002905D8D0F8003943F090
:10D680008053C0F8003900207047D0F8002B22F4F6
:10D690000012012BC0F8002B9EBFD0F8003B43F0D6
:10D6A0008053C0F8003BEEE7D0F8003823F4FE6367
:10D6B000C0F80038D0F80038090101F4FE611943C0
:10D6C000C0F800180020704708B5D0F8043823F0DF
:10D6D0000203C0F804380320FDF738FC002008BD21
:10D6E00008B5D0F8043843F00203C0F8043803202A
:10D6F000FDF72CFC002008BD42698069104070478E
:10D70000D0F8183800F50060C0691840000C704768
:10D71000D0F8183800F50060C069184080B2704732
:10D7200000EB411100F50060D1F8082B4069104072
:10D73000704710B5D0F81048D0F8343800EB4110DD
:10D7400001F00F01CB4000F51060DB018068DBB217
:10D750002343184010BD406900F001007047D0F825
:10D76000003923F4FF6323F00703C0F80039D0F831
:10D77000082802F00602042A02BFD0F8002942F06D
:10D780000302C0F80029D0F8042842F4807200F5A2
:10D79000006300205A60704730B5056C104CA542FC
:10D7A00000F5306303D9D0F8004B002C16DB0024C1
:10D7B0001C611C6944F400241C611C6944F01804B9
:10D7C0001C611C69012944F0C0441C6101BF5A61FD
:10D7D000D0F8003B43F08023C0F8003B002030BD70
:10D7E0000A30544F86B00023052853D8DFE800F0F4
:10D7F00003111E2B38450093274B28481A6B42F023
:10D8000001021A631B6B03F001030093009B06B037
:10D8100070470193204B22481A6B42F002021A63B0
:10D820001B6B03F002030193019BF0E702931A4B79
:10D830001C481A6B42F004021A631B6B03F00403CA
:10D840000293029BE3E70393134B17481A6B42F0D2
:10D8500008021A631B6B03F008030393039BD6E7CC
:10D8600004930D4B11481A6B42F010021A631B6BA4
:10D8700003F010030493049BC9E70593064B0C487F
:10D880001A6B42F080021A631B6B03F0800305934E
:10D89000059BBCE70020BAE70038024000000240C8
:10D8A0000004024000080240000C02400010024048
